{
  "contractName": "Airplane",
  "abi": [
    {
      "inputs": [
        {
          "internalType": "string",
          "name": "_name",
          "type": "string"
        },
        {
          "internalType": "string",
          "name": "_symbol",
          "type": "string"
        },
        {
          "internalType": "string",
          "name": "_initBaseURI",
          "type": "string"
        },
        {
          "internalType": "string",
          "name": "_initNotRevealedUri",
          "type": "string"
        }
      ],
      "stateMutability": "nonpayable",
      "type": "constructor"
    },
    {
      "anonymous": false,
      "inputs": [
        {
          "indexed": true,
          "internalType": "address",
          "name": "owner",
          "type": "address"
        },
        {
          "indexed": true,
          "internalType": "address",
          "name": "approved",
          "type": "address"
        },
        {
          "indexed": true,
          "internalType": "uint256",
          "name": "tokenId",
          "type": "uint256"
        }
      ],
      "name": "Approval",
      "type": "event"
    },
    {
      "anonymous": false,
      "inputs": [
        {
          "indexed": true,
          "internalType": "address",
          "name": "owner",
          "type": "address"
        },
        {
          "indexed": true,
          "internalType": "address",
          "name": "operator",
          "type": "address"
        },
        {
          "indexed": false,
          "internalType": "bool",
          "name": "approved",
          "type": "bool"
        }
      ],
      "name": "ApprovalForAll",
      "type": "event"
    },
    {
      "anonymous": false,
      "inputs": [
        {
          "indexed": true,
          "internalType": "address",
          "name": "previousOwner",
          "type": "address"
        },
        {
          "indexed": true,
          "internalType": "address",
          "name": "newOwner",
          "type": "address"
        }
      ],
      "name": "OwnershipTransferred",
      "type": "event"
    },
    {
      "anonymous": false,
      "inputs": [
        {
          "indexed": true,
          "internalType": "address",
          "name": "from",
          "type": "address"
        },
        {
          "indexed": true,
          "internalType": "address",
          "name": "to",
          "type": "address"
        },
        {
          "indexed": true,
          "internalType": "uint256",
          "name": "tokenId",
          "type": "uint256"
        }
      ],
      "name": "Transfer",
      "type": "event"
    },
    {
      "inputs": [],
      "name": "MAX_MINT_PER_TX",
      "outputs": [
        {
          "internalType": "uint256",
          "name": "",
          "type": "uint256"
        }
      ],
      "stateMutability": "view",
      "type": "function",
      "constant": true
    },
    {
      "inputs": [],
      "name": "MAX_SUPPLY",
      "outputs": [
        {
          "internalType": "uint256",
          "name": "",
          "type": "uint256"
        }
      ],
      "stateMutability": "view",
      "type": "function",
      "constant": true
    },
    {
      "inputs": [],
      "name": "alien",
      "outputs": [
        {
          "internalType": "bool",
          "name": "",
          "type": "bool"
        }
      ],
      "stateMutability": "view",
      "type": "function",
      "constant": true
    },
    {
      "inputs": [
        {
          "internalType": "address",
          "name": "to",
          "type": "address"
        },
        {
          "internalType": "uint256",
          "name": "tokenId",
          "type": "uint256"
        }
      ],
      "name": "approve",
      "outputs": [],
      "stateMutability": "nonpayable",
      "type": "function"
    },
    {
      "inputs": [
        {
          "internalType": "address",
          "name": "owner",
          "type": "address"
        }
      ],
      "name": "balanceOf",
      "outputs": [
        {
          "internalType": "uint256",
          "name": "",
          "type": "uint256"
        }
      ],
      "stateMutability": "view",
      "type": "function",
      "constant": true
    },
    {
      "inputs": [],
      "name": "baseExtension",
      "outputs": [
        {
          "internalType": "string",
          "name": "",
          "type": "string"
        }
      ],
      "stateMutability": "view",
      "type": "function",
      "constant": true
    },
    {
      "inputs": [],
      "name": "cost",
      "outputs": [
        {
          "internalType": "uint256",
          "name": "",
          "type": "uint256"
        }
      ],
      "stateMutability": "view",
      "type": "function",
      "constant": true
    },
    {
      "inputs": [
        {
          "internalType": "uint256",
          "name": "tokenId",
          "type": "uint256"
        }
      ],
      "name": "getApproved",
      "outputs": [
        {
          "internalType": "address",
          "name": "",
          "type": "address"
        }
      ],
      "stateMutability": "view",
      "type": "function",
      "constant": true
    },
    {
      "inputs": [
        {
          "internalType": "address",
          "name": "owner",
          "type": "address"
        },
        {
          "internalType": "address",
          "name": "operator",
          "type": "address"
        }
      ],
      "name": "isApprovedForAll",
      "outputs": [
        {
          "internalType": "bool",
          "name": "",
          "type": "bool"
        }
      ],
      "stateMutability": "view",
      "type": "function",
      "constant": true
    },
    {
      "inputs": [],
      "name": "name",
      "outputs": [
        {
          "internalType": "string",
          "name": "",
          "type": "string"
        }
      ],
      "stateMutability": "view",
      "type": "function",
      "constant": true
    },
    {
      "inputs": [],
      "name": "notRevealedUri",
      "outputs": [
        {
          "internalType": "string",
          "name": "",
          "type": "string"
        }
      ],
      "stateMutability": "view",
      "type": "function",
      "constant": true
    },
    {
      "inputs": [],
      "name": "owner",
      "outputs": [
        {
          "internalType": "address",
          "name": "",
          "type": "address"
        }
      ],
      "stateMutability": "view",
      "type": "function",
      "constant": true
    },
    {
      "inputs": [
        {
          "internalType": "uint256",
          "name": "tokenId",
          "type": "uint256"
        }
      ],
      "name": "ownerOf",
      "outputs": [
        {
          "internalType": "address",
          "name": "",
          "type": "address"
        }
      ],
      "stateMutability": "view",
      "type": "function",
      "constant": true
    },
    {
      "inputs": [],
      "name": "paused",
      "outputs": [
        {
          "internalType": "bool",
          "name": "",
          "type": "bool"
        }
      ],
      "stateMutability": "view",
      "type": "function",
      "constant": true
    },
    {
      "inputs": [],
      "name": "renounceOwnership",
      "outputs": [],
      "stateMutability": "nonpayable",
      "type": "function"
    },
    {
      "inputs": [],
      "name": "revealed",
      "outputs": [
        {
          "internalType": "bool",
          "name": "",
          "type": "bool"
        }
      ],
      "stateMutability": "view",
      "type": "function",
      "constant": true
    },
    {
      "inputs": [
        {
          "internalType": "address",
          "name": "from",
          "type": "address"
        },
        {
          "internalType": "address",
          "name": "to",
          "type": "address"
        },
        {
          "internalType": "uint256",
          "name": "tokenId",
          "type": "uint256"
        }
      ],
      "name": "safeTransferFrom",
      "outputs": [],
      "stateMutability": "nonpayable",
      "type": "function"
    },
    {
      "inputs": [
        {
          "internalType": "address",
          "name": "from",
          "type": "address"
        },
        {
          "internalType": "address",
          "name": "to",
          "type": "address"
        },
        {
          "internalType": "uint256",
          "name": "tokenId",
          "type": "uint256"
        },
        {
          "internalType": "bytes",
          "name": "_data",
          "type": "bytes"
        }
      ],
      "name": "safeTransferFrom",
      "outputs": [],
      "stateMutability": "nonpayable",
      "type": "function"
    },
    {
      "inputs": [
        {
          "internalType": "address",
          "name": "operator",
          "type": "address"
        },
        {
          "internalType": "bool",
          "name": "approved",
          "type": "bool"
        }
      ],
      "name": "setApprovalForAll",
      "outputs": [],
      "stateMutability": "nonpayable",
      "type": "function"
    },
    {
      "inputs": [
        {
          "internalType": "bytes4",
          "name": "interfaceId",
          "type": "bytes4"
        }
      ],
      "name": "supportsInterface",
      "outputs": [
        {
          "internalType": "bool",
          "name": "",
          "type": "bool"
        }
      ],
      "stateMutability": "view",
      "type": "function",
      "constant": true
    },
    {
      "inputs": [],
      "name": "symbol",
      "outputs": [
        {
          "internalType": "string",
          "name": "",
          "type": "string"
        }
      ],
      "stateMutability": "view",
      "type": "function",
      "constant": true
    },
    {
      "inputs": [
        {
          "internalType": "uint256",
          "name": "index",
          "type": "uint256"
        }
      ],
      "name": "tokenByIndex",
      "outputs": [
        {
          "internalType": "uint256",
          "name": "",
          "type": "uint256"
        }
      ],
      "stateMutability": "view",
      "type": "function",
      "constant": true
    },
    {
      "inputs": [
        {
          "internalType": "address",
          "name": "owner",
          "type": "address"
        },
        {
          "internalType": "uint256",
          "name": "index",
          "type": "uint256"
        }
      ],
      "name": "tokenOfOwnerByIndex",
      "outputs": [
        {
          "internalType": "uint256",
          "name": "",
          "type": "uint256"
        }
      ],
      "stateMutability": "view",
      "type": "function",
      "constant": true
    },
    {
      "inputs": [],
      "name": "totalSupply",
      "outputs": [
        {
          "internalType": "uint256",
          "name": "",
          "type": "uint256"
        }
      ],
      "stateMutability": "view",
      "type": "function",
      "constant": true
    },
    {
      "inputs": [
        {
          "internalType": "address",
          "name": "from",
          "type": "address"
        },
        {
          "internalType": "address",
          "name": "to",
          "type": "address"
        },
        {
          "internalType": "uint256",
          "name": "tokenId",
          "type": "uint256"
        }
      ],
      "name": "transferFrom",
      "outputs": [],
      "stateMutability": "nonpayable",
      "type": "function"
    },
    {
      "inputs": [
        {
          "internalType": "address",
          "name": "newOwner",
          "type": "address"
        }
      ],
      "name": "transferOwnership",
      "outputs": [],
      "stateMutability": "nonpayable",
      "type": "function"
    },
    {
      "inputs": [
        {
          "internalType": "uint256",
          "name": "_amount",
          "type": "uint256"
        }
      ],
      "name": "mint",
      "outputs": [],
      "stateMutability": "nonpayable",
      "type": "function"
    },
    {
      "inputs": [
        {
          "internalType": "uint256",
          "name": "tokenId",
          "type": "uint256"
        }
      ],
      "name": "tokenURI",
      "outputs": [
        {
          "internalType": "string",
          "name": "",
          "type": "string"
        }
      ],
      "stateMutability": "view",
      "type": "function",
      "constant": true
    },
    {
      "inputs": [],
      "name": "_alien",
      "outputs": [],
      "stateMutability": "nonpayable",
      "type": "function"
    },
    {
      "inputs": [],
      "name": "showboobs",
      "outputs": [],
      "stateMutability": "nonpayable",
      "type": "function"
    },
    {
      "inputs": [
        {
          "internalType": "uint256",
          "name": "_newprice",
          "type": "uint256"
        }
      ],
      "name": "setCost",
      "outputs": [],
      "stateMutability": "nonpayable",
      "type": "function"
    },
    {
      "inputs": [
        {
          "internalType": "string",
          "name": "_notRevealedURI",
          "type": "string"
        }
      ],
      "name": "setNotRevealedURI",
      "outputs": [],
      "stateMutability": "nonpayable",
      "type": "function"
    },
    {
      "inputs": [
        {
          "internalType": "string",
          "name": "_newBaseURI",
          "type": "string"
        }
      ],
      "name": "setBaseURI",
      "outputs": [],
      "stateMutability": "nonpayable",
      "type": "function"
    },
    {
      "inputs": [
        {
          "internalType": "string",
          "name": "_newBaseExtension",
          "type": "string"
        }
      ],
      "name": "setBaseExtension",
      "outputs": [],
      "stateMutability": "nonpayable",
      "type": "function"
    },
    {
      "inputs": [
        {
          "internalType": "bool",
          "name": "_state",
          "type": "bool"
        }
      ],
      "name": "pause",
      "outputs": [],
      "stateMutability": "nonpayable",
      "type": "function"
    },
    {
      "inputs": [
        {
          "internalType": "uint256",
          "name": "tokenId",
          "type": "uint256"
        }
      ],
      "name": "burn",
      "outputs": [],
      "stateMutability": "nonpayable",
      "type": "function"
    }
  ],
  "bytecode": "0x60806040526040518060400160405280600581526020017f2e6a736f6e000000000000000000000000000000000000000000000000000000815250600c908051906020019062000051929190620003b7565b50674563918244f40000600d556066600e556000600f60006101000a81548160ff0219169083151502179055506000600f60016101000a81548160ff021916908315150217905550348015620000a657600080fd5b5060405162004aca38038062004aca8339818101604052810190620000cc919062000604565b83838160009080519060200190620000e6929190620003b7565b508060019080519060200190620000ff929190620003b7565b50505062000122620001166200016960201b60201c565b6200017160201b60201c565b62000133826200023760201b60201c565b6200014481620002e260201b60201c565b6001600a60146101000a81548160ff02191690831515021790555050505050620007d9565b600033905090565b6000600a60009054906101000a900473ffffffffffffffffffffffffffffffffffffffff16905081600a60006101000a81548173ffffffffffffffffffffffffffffffffffffffff021916908373ffffffffffffffffffffffffffffffffffffffff1602179055508173ffffffffffffffffffffffffffffffffffffffff168173ffffffffffffffffffffffffffffffffffffffff167f8be0079c531659141344cd1fd0a4f28419497f9722a3daafe3b4186f6b6457e060405160405180910390a35050565b620002476200016960201b60201c565b73ffffffffffffffffffffffffffffffffffffffff166200026d6200038d60201b60201c565b73ffffffffffffffffffffffffffffffffffffffff1614620002c6576040517f08c379a0000000000000000000000000000000000000000000000000000000008152600401620002bd9062000753565b60405180910390fd5b80600b9080519060200190620002de929190620003b7565b5050565b620002f26200016960201b60201c565b73ffffffffffffffffffffffffffffffffffffffff16620003186200038d60201b60201c565b73ffffffffffffffffffffffffffffffffffffffff161462000371576040517f08c379a0000000000000000000000000000000000000000000000000000000008152600401620003689062000753565b60405180910390fd5b806010908051906020019062000389929190620003b7565b5050565b6000600a60009054906101000a900473ffffffffffffffffffffffffffffffffffffffff16905090565b828054620003c590620007a4565b90600052602060002090601f016020900481019282620003e9576000855562000435565b82601f106200040457805160ff191683800117855562000435565b8280016001018555821562000435579182015b828111156200043457825182559160200191906001019062000417565b5b50905062000444919062000448565b5090565b5b808211156200046357600081600090555060010162000449565b5090565b6000604051905090565b600080fd5b600080fd5b600080fd5b600080fd5b6000601f19601f8301169050919050565b7f4e487b7100000000000000000000000000000000000000000000000000000000600052604160045260246000fd5b620004d08262000485565b810181811067ffffffffffffffff82111715620004f257620004f162000496565b5b80604052505050565b60006200050762000467565b9050620005158282620004c5565b919050565b600067ffffffffffffffff82111562000538576200053762000496565b5b620005438262000485565b9050602081019050919050565b60005b838110156200057057808201518184015260208101905062000553565b8381111562000580576000848401525b50505050565b60006200059d62000597846200051a565b620004fb565b905082815260208101848484011115620005bc57620005bb62000480565b5b620005c984828562000550565b509392505050565b600082601f830112620005e957620005e86200047b565b5b8151620005fb84826020860162000586565b91505092915050565b6000806000806080858703121562000621576200062062000471565b5b600085015167ffffffffffffffff81111562000642576200064162000476565b5b6200065087828801620005d1565b945050602085015167ffffffffffffffff81111562000674576200067362000476565b5b6200068287828801620005d1565b935050604085015167ffffffffffffffff811115620006a657620006a562000476565b5b620006b487828801620005d1565b925050606085015167ffffffffffffffff811115620006d857620006d762000476565b5b620006e687828801620005d1565b91505092959194509250565b600082825260208201905092915050565b7f4f776e61626c653a2063616c6c6572206973206e6f7420746865206f776e6572600082015250565b60006200073b602083620006f2565b9150620007488262000703565b602082019050919050565b600060208201905081810360008301526200076e816200072c565b9050919050565b7f4e487b7100000000000000000000000000000000000000000000000000000000600052602260045260246000fd5b60006002820490506001821680620007bd57607f821691505b602082108103620007d357620007d262000775565b5b50919050565b6142e180620007e96000396000f3fe608060405234801561001057600080fd5b506004361061021c5760003560e01c80635c975abb11610125578063a22cb465116100ad578063c87b56dd1161007c578063c87b56dd146105df578063da3ef23f1461060f578063e985e9c51461062b578063f2c4ce1e1461065b578063f2fde38b146106775761021c565b8063a22cb4651461057f578063b88d4fde1461059b578063be1963b5146105b7578063c6682862146105c15761021c565b80638da5cb5b116100f45780638da5cb5b146104eb5780638ecad72114610509578063948ea65c1461052757806395d89b4114610545578063a0712d68146105635761021c565b80635c975abb146104635780636352211e1461048157806370a08231146104b1578063715018a6146104e15761021c565b80632f745c59116101a857806344a0d68a1161017757806344a0d68a146103d35780634f6ccce7146103ef578063518302271461041f57806351d642741461043d57806355f804b3146104475761021c565b80632f745c591461034d57806332cb6b0c1461037d57806342842e0e1461039b57806342966c68146103b75761021c565b8063081c8c44116101ef578063081c8c44146102bb578063095ea7b3146102d957806313faede6146102f557806318160ddd1461031357806323b872dd146103315761021c565b806301ffc9a71461022157806302329a291461025157806306fdde031461026d578063081812fc1461028b575b600080fd5b61023b60048036038101906102369190612ccd565b610693565b6040516102489190612d15565b60405180910390f35b61026b60048036038101906102669190612d5c565b61070d565b005b6102756107a6565b6040516102829190612e22565b60405180910390f35b6102a560048036038101906102a09190612e7a565b610838565b6040516102b29190612ee8565b60405180910390f35b6102c36108bd565b6040516102d09190612e22565b60405180910390f35b6102f360048036038101906102ee9190612f2f565b61094b565b005b6102fd610a62565b60405161030a9190612f7e565b60405180910390f35b61031b610a68565b6040516103289190612f7e565b60405180910390f35b61034b60048036038101906103469190612f99565b610a75565b005b61036760048036038101906103629190612f2f565b610ad5565b6040516103749190612f7e565b60405180910390f35b610385610b7a565b6040516103929190612f7e565b60405180910390f35b6103b560048036038101906103b09190612f99565b610b80565b005b6103d160048036038101906103cc9190612e7a565b610ba0565b005b6103ed60048036038101906103e89190612e7a565b610bfc565b005b61040960048036038101906104049190612e7a565b610c82565b6040516104169190612f7e565b60405180910390f35b610427610cf3565b6040516104349190612d15565b60405180910390f35b610445610d06565b005b610461600480360381019061045c9190613121565b610dae565b005b61046b610e44565b6040516104789190612d15565b60405180910390f35b61049b60048036038101906104969190612e7a565b610e57565b6040516104a89190612ee8565b60405180910390f35b6104cb60048036038101906104c6919061316a565b610f08565b6040516104d89190612f7e565b60405180910390f35b6104e9610fbf565b005b6104f3611047565b6040516105009190612ee8565b60405180910390f35b610511611071565b60405161051e9190612f7e565b60405180910390f35b61052f611076565b60405161053c9190612d15565b60405180910390f35b61054d611089565b60405161055a9190612e22565b60405180910390f35b61057d60048036038101906105789190612e7a565b61111b565b005b61059960048036038101906105949190613197565b611298565b005b6105b560048036038101906105b09190613278565b6112ae565b005b6105bf611310565b005b6105c96113a9565b6040516105d69190612e22565b60405180910390f35b6105f960048036038101906105f49190612e7a565b611437565b6040516106069190612e22565b60405180910390f35b61062960048036038101906106249190613121565b61158f565b005b610645600480360381019061064091906132fb565b611625565b6040516106529190612d15565b60405180910390f35b61067560048036038101906106709190613121565b6116b9565b005b610691600480360381019061068c919061316a565b61174f565b005b60007f780e9d63000000000000000000000000000000000000000000000000000000007bffffffffffffffffffffffffffffffffffffffffffffffffffffffff1916827bffffffffffffffffffffffffffffffffffffffffffffffffffffffff19161480610706575061070582611846565b5b9050919050565b610715611928565b73ffffffffffffffffffffffffffffffffffffffff16610733611047565b73ffffffffffffffffffffffffffffffffffffffff1614610789576040517f08c379a000000000000000000000000000000000000000000000000000000000815260040161078090613387565b60405180910390fd5b80600f60006101000a81548160ff02191690831515021790555050565b6060600080546107b5906133d6565b80601f01602080910402602001604051908101604052809291908181526020018280546107e1906133d6565b801561082e5780601f106108035761010080835404028352916020019161082e565b820191906000526020600020905b81548152906001019060200180831161081157829003601f168201915b5050505050905090565b600061084382611930565b610882576040517f08c379a000000000000000000000000000000000000000000000000000000000815260040161087990613479565b60405180910390fd5b6004600083815260200190815260200160002060009054906101000a900473ffffffffffffffffffffffffffffffffffffffff169050919050565b601080546108ca906133d6565b80601f01602080910402602001604051908101604052809291908181526020018280546108f6906133d6565b80156109435780601f1061091857610100808354040283529160200191610943565b820191906000526020600020905b81548152906001019060200180831161092657829003601f168201915b505050505081565b600061095682610e57565b90508073ffffffffffffffffffffffffffffffffffffffff168373ffffffffffffffffffffffffffffffffffffffff16036109c6576040517f08c379a00000000000000000000000000000000000000000000000000000000081526004016109bd9061350b565b60405180910390fd5b8073ffffffffffffffffffffffffffffffffffffffff166109e5611928565b73ffffffffffffffffffffffffffffffffffffffff161480610a145750610a1381610a0e611928565b611625565b5b610a53576040517f08c379a0000000000000000000000000000000000000000000000000000000008152600401610a4a9061359d565b60405180910390fd5b610a5d838361199c565b505050565b600d5481565b6000600880549050905090565b610a86610a80611928565b82611a55565b610ac5576040517f08c379a0000000000000000000000000000000000000000000000000000000008152600401610abc9061362f565b60405180910390fd5b610ad0838383611b33565b505050565b6000610ae083610f08565b8210610b21576040517f08c379a0000000000000000000000000000000000000000000000000000000008152600401610b18906136c1565b60405180910390fd5b600660008473ffffffffffffffffffffffffffffffffffffffff1673ffffffffffffffffffffffffffffffffffffffff168152602001908152602001600020600083815260200190815260200160002054905092915050565b600e5481565b610b9b838383604051806020016040528060008152506112ae565b505050565b610bb1610bab611928565b82611a55565b610bf0576040517f08c379a0000000000000000000000000000000000000000000000000000000008152600401610be790613753565b60405180910390fd5b610bf981611d99565b50565b610c04611928565b73ffffffffffffffffffffffffffffffffffffffff16610c22611047565b73ffffffffffffffffffffffffffffffffffffffff1614610c78576040517f08c379a0000000000000000000000000000000000000000000000000000000008152600401610c6f90613387565b60405180910390fd5b80600d8190555050565b6000610c8c610a68565b8210610ccd576040517f08c379a0000000000000000000000000000000000000000000000000000000008152600401610cc4906137e5565b60405180910390fd5b60088281548110610ce157610ce0613805565b5b90600052602060002001549050919050565b600f60019054906101000a900460ff1681565b610d0e611928565b73ffffffffffffffffffffffffffffffffffffffff16610d2c611047565b73ffffffffffffffffffffffffffffffffffffffff1614610d82576040517f08c379a0000000000000000000000000000000000000000000000000000000008152600401610d7990613387565b60405180910390fd5b600a60149054906101000a900460ff1615600a60146101000a81548160ff021916908315150217905550565b610db6611928565b73ffffffffffffffffffffffffffffffffffffffff16610dd4611047565b73ffffffffffffffffffffffffffffffffffffffff1614610e2a576040517f08c379a0000000000000000000000000000000000000000000000000000000008152600401610e2190613387565b60405180910390fd5b80600b9080519060200190610e40929190612bbe565b5050565b600f60009054906101000a900460ff1681565b6000806002600084815260200190815260200160002060009054906101000a900473ffffffffffffffffffffffffffffffffffffffff169050600073ffffffffffffffffffffffffffffffffffffffff168173ffffffffffffffffffffffffffffffffffffffff1603610eff576040517f08c379a0000000000000000000000000000000000000000000000000000000008152600401610ef6906138a6565b60405180910390fd5b80915050919050565b60008073ffffffffffffffffffffffffffffffffffffffff168273ffffffffffffffffffffffffffffffffffffffff1603610f78576040517f08c379a0000000000000000000000000000000000000000000000000000000008152600401610f6f90613938565b60405180910390fd5b600360008373ffffffffffffffffffffffffffffffffffffffff1673ffffffffffffffffffffffffffffffffffffffff168152602001908152602001600020549050919050565b610fc7611928565b73ffffffffffffffffffffffffffffffffffffffff16610fe5611047565b73ffffffffffffffffffffffffffffffffffffffff161461103b576040517f08c379a000000000000000000000000000000000000000000000000000000000815260040161103290613387565b60405180910390fd5b6110456000611eb6565b565b6000600a60009054906101000a900473ffffffffffffffffffffffffffffffffffffffff16905090565b600581565b600a60149054906101000a900460ff1681565b606060018054611098906133d6565b80601f01602080910402602001604051908101604052809291908181526020018280546110c4906133d6565b80156111115780601f106110e657610100808354040283529160200191611111565b820191906000526020600020905b8154815290600101906020018083116110f457829003601f168201915b5050505050905090565b611123611928565b73ffffffffffffffffffffffffffffffffffffffff16611141611047565b73ffffffffffffffffffffffffffffffffffffffff1614611197576040517f08c379a000000000000000000000000000000000000000000000000000000000815260040161118e90613387565b60405180910390fd5b60006111a1610a68565b9050600f60009054906101000a900460ff16156111bd57600080fd5b6000821180156111ce575060058211155b61120d576040517f08c379a0000000000000000000000000000000000000000000000000000000008152600401611204906139ca565b60405180910390fd5b600e54828261121c9190613a19565b111561125d576040517f08c379a000000000000000000000000000000000000000000000000000000000815260040161125490613abb565b60405180910390fd5b6000600190505b8281116112935761128033828461127b9190613a19565b611f7c565b808061128b90613adb565b915050611264565b505050565b6112aa6112a3611928565b8383611f9a565b5050565b6112bf6112b9611928565b83611a55565b6112fe576040517f08c379a00000000000000000000000000000000000000000000000000000000081526004016112f59061362f565b60405180910390fd5b61130a84848484612106565b50505050565b611318611928565b73ffffffffffffffffffffffffffffffffffffffff16611336611047565b73ffffffffffffffffffffffffffffffffffffffff161461138c576040517f08c379a000000000000000000000000000000000000000000000000000000000815260040161138390613387565b60405180910390fd5b6001600f60016101000a81548160ff021916908315150217905550565b600c80546113b6906133d6565b80601f01602080910402602001604051908101604052809291908181526020018280546113e2906133d6565b801561142f5780601f106114045761010080835404028352916020019161142f565b820191906000526020600020905b81548152906001019060200180831161141257829003601f168201915b505050505081565b606061144282611930565b611481576040517f08c379a000000000000000000000000000000000000000000000000000000000815260040161147890613b95565b60405180910390fd5b60001515600f60019054906101000a900460ff1615150361152e57601080546114a9906133d6565b80601f01602080910402602001604051908101604052809291908181526020018280546114d5906133d6565b80156115225780601f106114f757610100808354040283529160200191611522565b820191906000526020600020905b81548152906001019060200180831161150557829003601f168201915b5050505050905061158a565b6000611538612162565b905060008151116115585760405180602001604052806000815250611586565b80611562846121f4565b600c60405160200161157693929190613c85565b6040516020818303038152906040525b9150505b919050565b611597611928565b73ffffffffffffffffffffffffffffffffffffffff166115b5611047565b73ffffffffffffffffffffffffffffffffffffffff161461160b576040517f08c379a000000000000000000000000000000000000000000000000000000000815260040161160290613387565b60405180910390fd5b80600c9080519060200190611621929190612bbe565b5050565b6000600560008473ffffffffffffffffffffffffffffffffffffffff1673ffffffffffffffffffffffffffffffffffffffff16815260200190815260200160002060008373ffffffffffffffffffffffffffffffffffffffff1673ffffffffffffffffffffffffffffffffffffffff16815260200190815260200160002060009054906101000a900460ff16905092915050565b6116c1611928565b73ffffffffffffffffffffffffffffffffffffffff166116df611047565b73ffffffffffffffffffffffffffffffffffffffff1614611735576040517f08c379a000000000000000000000000000000000000000000000000000000000815260040161172c90613387565b60405180910390fd5b806010908051906020019061174b929190612bbe565b5050565b611757611928565b73ffffffffffffffffffffffffffffffffffffffff16611775611047565b73ffffffffffffffffffffffffffffffffffffffff16146117cb576040517f08c379a00000000000000000000000000000000000000000000000000000000081526004016117c290613387565b60405180910390fd5b600073ffffffffffffffffffffffffffffffffffffffff168173ffffffffffffffffffffffffffffffffffffffff160361183a576040517f08c379a000000000000000000000000000000000000000000000000000000000815260040161183190613d28565b60405180910390fd5b61184381611eb6565b50565b60007f80ac58cd000000000000000000000000000000000000000000000000000000007bffffffffffffffffffffffffffffffffffffffffffffffffffffffff1916827bffffffffffffffffffffffffffffffffffffffffffffffffffffffff1916148061191157507f5b5e139f000000000000000000000000000000000000000000000000000000007bffffffffffffffffffffffffffffffffffffffffffffffffffffffff1916827bffffffffffffffffffffffffffffffffffffffffffffffffffffffff1916145b80611921575061192082612354565b5b9050919050565b600033905090565b60008073ffffffffffffffffffffffffffffffffffffffff166002600084815260200190815260200160002060009054906101000a900473ffffffffffffffffffffffffffffffffffffffff1673ffffffffffffffffffffffffffffffffffffffff1614159050919050565b816004600083815260200190815260200160002060006101000a81548173ffffffffffffffffffffffffffffffffffffffff021916908373ffffffffffffffffffffffffffffffffffffffff160217905550808273ffffffffffffffffffffffffffffffffffffffff16611a0f83610e57565b73ffffffffffffffffffffffffffffffffffffffff167f8c5be1e5ebec7d5bd14f71427d1e84f3dd0314c0f7b2291e5b200ac8c7c3b92560405160405180910390a45050565b6000611a6082611930565b611a9f576040517f08c379a0000000000000000000000000000000000000000000000000000000008152600401611a9690613dba565b60405180910390fd5b6000611aaa83610e57565b90508073ffffffffffffffffffffffffffffffffffffffff168473ffffffffffffffffffffffffffffffffffffffff161480611aec5750611aeb8185611625565b5b80611b2a57508373ffffffffffffffffffffffffffffffffffffffff16611b1284610838565b73ffffffffffffffffffffffffffffffffffffffff16145b91505092915050565b8273ffffffffffffffffffffffffffffffffffffffff16611b5382610e57565b73ffffffffffffffffffffffffffffffffffffffff1614611ba9576040517f08c379a0000000000000000000000000000000000000000000000000000000008152600401611ba090613e4c565b60405180910390fd5b600073ffffffffffffffffffffffffffffffffffffffff168273ffffffffffffffffffffffffffffffffffffffff1603611c18576040517f08c379a0000000000000000000000000000000000000000000000000000000008152600401611c0f90613ede565b60405180910390fd5b611c238383836123be565b611c2e60008261199c565b6001600360008573ffffffffffffffffffffffffffffffffffffffff1673ffffffffffffffffffffffffffffffffffffffff1681526020019081526020016000206000828254611c7e9190613efe565b925050819055506001600360008473ffffffffffffffffffffffffffffffffffffffff1673ffffffffffffffffffffffffffffffffffffffff1681526020019081526020016000206000828254611cd59190613a19565b92505081905550816002600083815260200190815260200160002060006101000a81548173ffffffffffffffffffffffffffffffffffffffff021916908373ffffffffffffffffffffffffffffffffffffffff160217905550808273ffffffffffffffffffffffffffffffffffffffff168473ffffffffffffffffffffffffffffffffffffffff167fddf252ad1be2c89b69c2b068fc378daa952ba7f163c4a11628f55a4df523b3ef60405160405180910390a4611d948383836124d0565b505050565b6000611da482610e57565b9050611db2816000846123be565b611dbd60008361199c565b6001600360008373ffffffffffffffffffffffffffffffffffffffff1673ffffffffffffffffffffffffffffffffffffffff1681526020019081526020016000206000828254611e0d9190613efe565b925050819055506002600083815260200190815260200160002060006101000a81549073ffffffffffffffffffffffffffffffffffffffff021916905581600073ffffffffffffffffffffffffffffffffffffffff168273ffffffffffffffffffffffffffffffffffffffff167fddf252ad1be2c89b69c2b068fc378daa952ba7f163c4a11628f55a4df523b3ef60405160405180910390a4611eb2816000846124d0565b5050565b6000600a60009054906101000a900473ffffffffffffffffffffffffffffffffffffffff16905081600a60006101000a81548173ffffffffffffffffffffffffffffffffffffffff021916908373ffffffffffffffffffffffffffffffffffffffff1602179055508173ffffffffffffffffffffffffffffffffffffffff168173ffffffffffffffffffffffffffffffffffffffff167f8be0079c531659141344cd1fd0a4f28419497f9722a3daafe3b4186f6b6457e060405160405180910390a35050565b611f968282604051806020016040528060008152506124d5565b5050565b8173ffffffffffffffffffffffffffffffffffffffff168373ffffffffffffffffffffffffffffffffffffffff1603612008576040517f08c379a0000000000000000000000000000000000000000000000000000000008152600401611fff90613f7e565b60405180910390fd5b80600560008573ffffffffffffffffffffffffffffffffffffffff1673ffffffffffffffffffffffffffffffffffffffff16815260200190815260200160002060008473ffffffffffffffffffffffffffffffffffffffff1673ffffffffffffffffffffffffffffffffffffffff16815260200190815260200160002060006101000a81548160ff0219169083151502179055508173ffffffffffffffffffffffffffffffffffffffff168373ffffffffffffffffffffffffffffffffffffffff167f17307eab39ab6107e8899845ad3d59bd9653f200f220920489ca2b5937696c31836040516120f99190612d15565b60405180910390a3505050565b612111848484611b33565b61211d84848484612530565b61215c576040517f08c379a000000000000000000000000000000000000000000000000000000000815260040161215390614010565b60405180910390fd5b50505050565b6060600b8054612171906133d6565b80601f016020809104026020016040519081016040528092919081815260200182805461219d906133d6565b80156121ea5780601f106121bf576101008083540402835291602001916121ea565b820191906000526020600020905b8154815290600101906020018083116121cd57829003601f168201915b5050505050905090565b60606000820361223b576040518060400160405280600181526020017f3000000000000000000000000000000000000000000000000000000000000000815250905061234f565b600082905060005b6000821461226d57808061225690613adb565b915050600a82612266919061405f565b9150612243565b60008167ffffffffffffffff81111561228957612288612ff6565b5b6040519080825280601f01601f1916602001820160405280156122bb5781602001600182028036833780820191505090505b5090505b60008514612348576001826122d49190613efe565b9150600a856122e39190614090565b60306122ef9190613a19565b60f81b81838151811061230557612304613805565b5b60200101907effffffffffffffffffffffffffffffffffffffffffffffffffffffffffffff1916908160001a905350600a85612341919061405f565b94506122bf565b8093505050505b919050565b60007f01ffc9a7000000000000000000000000000000000000000000000000000000007bffffffffffffffffffffffffffffffffffffffffffffffffffffffff1916827bffffffffffffffffffffffffffffffffffffffffffffffffffffffff1916149050919050565b6123c98383836126b7565b600073ffffffffffffffffffffffffffffffffffffffff168373ffffffffffffffffffffffffffffffffffffffff160361240b57612406816126bc565b61244a565b8173ffffffffffffffffffffffffffffffffffffffff168373ffffffffffffffffffffffffffffffffffffffff1614612449576124488382612705565b5b5b600073ffffffffffffffffffffffffffffffffffffffff168273ffffffffffffffffffffffffffffffffffffffff160361248c5761248781612872565b6124cb565b8273ffffffffffffffffffffffffffffffffffffffff168273ffffffffffffffffffffffffffffffffffffffff16146124ca576124c98282612943565b5b5b505050565b505050565b6124df83836129c2565b6124ec6000848484612530565b61252b576040517f08c379a000000000000000000000000000000000000000000000000000000000815260040161252290614010565b60405180910390fd5b505050565b60006125518473ffffffffffffffffffffffffffffffffffffffff16612b9b565b156126aa578373ffffffffffffffffffffffffffffffffffffffff1663150b7a0261257a611928565b8786866040518563ffffffff1660e01b815260040161259c9493929190614116565b6020604051808303816000875af19250505080156125d857506040513d601f19601f820116820180604052508101906125d59190614177565b60015b61265a573d8060008114612608576040519150601f19603f3d011682016040523d82523d6000602084013e61260d565b606091505b506000815103612652576040517f08c379a000000000000000000000000000000000000000000000000000000000815260040161264990614010565b60405180910390fd5b805181602001fd5b63150b7a0260e01b7bffffffffffffffffffffffffffffffffffffffffffffffffffffffff1916817bffffffffffffffffffffffffffffffffffffffffffffffffffffffff1916149150506126af565b600190505b949350505050565b505050565b6008805490506009600083815260200190815260200160002081905550600881908060018154018082558091505060019003906000526020600020016000909190919091505550565b6000600161271284610f08565b61271c9190613efe565b9050600060076000848152602001908152602001600020549050818114612801576000600660008673ffffffffffffffffffffffffffffffffffffffff1673ffffffffffffffffffffffffffffffffffffffff168152602001908152602001600020600084815260200190815260200160002054905080600660008773ffffffffffffffffffffffffffffffffffffffff1673ffffffffffffffffffffffffffffffffffffffff168152602001908152602001600020600084815260200190815260200160002081905550816007600083815260200190815260200160002081905550505b6007600084815260200190815260200160002060009055600660008573ffffffffffffffffffffffffffffffffffffffff1673ffffffffffffffffffffffffffffffffffffffff16815260200190815260200160002060008381526020019081526020016000206000905550505050565b600060016008805490506128869190613efe565b90506000600960008481526020019081526020016000205490506000600883815481106128b6576128b5613805565b5b9060005260206000200154905080600883815481106128d8576128d7613805565b5b906000526020600020018190555081600960008381526020019081526020016000208190555060096000858152602001908152602001600020600090556008805480612927576129266141a4565b5b6001900381819060005260206000200160009055905550505050565b600061294e83610f08565b905081600660008573ffffffffffffffffffffffffffffffffffffffff1673ffffffffffffffffffffffffffffffffffffffff168152602001908152602001600020600083815260200190815260200160002081905550806007600084815260200190815260200160002081905550505050565b600073ffffffffffffffffffffffffffffffffffffffff168273ffffffffffffffffffffffffffffffffffffffff1603612a31576040517f08c379a0000000000000000000000000000000000000000000000000000000008152600401612a289061421f565b60405180910390fd5b612a3a81611930565b15612a7a576040517f08c379a0000000000000000000000000000000000000000000000000000000008152600401612a719061428b565b60405180910390fd5b612a86600083836123be565b6001600360008473ffffffffffffffffffffffffffffffffffffffff1673ffffffffffffffffffffffffffffffffffffffff1681526020019081526020016000206000828254612ad69190613a19565b92505081905550816002600083815260200190815260200160002060006101000a81548173ffffffffffffffffffffffffffffffffffffffff021916908373ffffffffffffffffffffffffffffffffffffffff160217905550808273ffffffffffffffffffffffffffffffffffffffff16600073ffffffffffffffffffffffffffffffffffffffff167fddf252ad1be2c89b69c2b068fc378daa952ba7f163c4a11628f55a4df523b3ef60405160405180910390a4612b97600083836124d0565b5050565b6000808273ffffffffffffffffffffffffffffffffffffffff163b119050919050565b828054612bca906133d6565b90600052602060002090601f016020900481019282612bec5760008555612c33565b82601f10612c0557805160ff1916838001178555612c33565b82800160010185558215612c33579182015b82811115612c32578251825591602001919060010190612c17565b5b509050612c409190612c44565b5090565b5b80821115612c5d576000816000905550600101612c45565b5090565b6000604051905090565b600080fd5b600080fd5b60007fffffffff0000000000000000000000000000000000000000000000000000000082169050919050565b612caa81612c75565b8114612cb557600080fd5b50565b600081359050612cc781612ca1565b92915050565b600060208284031215612ce357612ce2612c6b565b5b6000612cf184828501612cb8565b91505092915050565b60008115159050919050565b612d0f81612cfa565b82525050565b6000602082019050612d2a6000830184612d06565b92915050565b612d3981612cfa565b8114612d4457600080fd5b50565b600081359050612d5681612d30565b92915050565b600060208284031215612d7257612d71612c6b565b5b6000612d8084828501612d47565b91505092915050565b600081519050919050565b600082825260208201905092915050565b60005b83811015612dc3578082015181840152602081019050612da8565b83811115612dd2576000848401525b50505050565b6000601f19601f8301169050919050565b6000612df482612d89565b612dfe8185612d94565b9350612e0e818560208601612da5565b612e1781612dd8565b840191505092915050565b60006020820190508181036000830152612e3c8184612de9565b905092915050565b6000819050919050565b612e5781612e44565b8114612e6257600080fd5b50565b600081359050612e7481612e4e565b92915050565b600060208284031215612e9057612e8f612c6b565b5b6000612e9e84828501612e65565b91505092915050565b600073ffffffffffffffffffffffffffffffffffffffff82169050919050565b6000612ed282612ea7565b9050919050565b612ee281612ec7565b82525050565b6000602082019050612efd6000830184612ed9565b92915050565b612f0c81612ec7565b8114612f1757600080fd5b50565b600081359050612f2981612f03565b92915050565b60008060408385031215612f4657612f45612c6b565b5b6000612f5485828601612f1a565b9250506020612f6585828601612e65565b9150509250929050565b612f7881612e44565b82525050565b6000602082019050612f936000830184612f6f565b92915050565b600080600060608486031215612fb257612fb1612c6b565b5b6000612fc086828701612f1a565b9350506020612fd186828701612f1a565b9250506040612fe286828701612e65565b9150509250925092565b600080fd5b600080fd5b7f4e487b7100000000000000000000000000000000000000000000000000000000600052604160045260246000fd5b61302e82612dd8565b810181811067ffffffffffffffff8211171561304d5761304c612ff6565b5b80604052505050565b6000613060612c61565b905061306c8282613025565b919050565b600067ffffffffffffffff82111561308c5761308b612ff6565b5b61309582612dd8565b9050602081019050919050565b82818337600083830152505050565b60006130c46130bf84613071565b613056565b9050828152602081018484840111156130e0576130df612ff1565b5b6130eb8482856130a2565b509392505050565b600082601f83011261310857613107612fec565b5b81356131188482602086016130b1565b91505092915050565b60006020828403121561313757613136612c6b565b5b600082013567ffffffffffffffff81111561315557613154612c70565b5b613161848285016130f3565b91505092915050565b6000602082840312156131805761317f612c6b565b5b600061318e84828501612f1a565b91505092915050565b600080604083850312156131ae576131ad612c6b565b5b60006131bc85828601612f1a565b92505060206131cd85828601612d47565b9150509250929050565b600067ffffffffffffffff8211156131f2576131f1612ff6565b5b6131fb82612dd8565b9050602081019050919050565b600061321b613216846131d7565b613056565b90508281526020810184848401111561323757613236612ff1565b5b6132428482856130a2565b509392505050565b600082601f83011261325f5761325e612fec565b5b813561326f848260208601613208565b91505092915050565b6000806000806080858703121561329257613291612c6b565b5b60006132a087828801612f1a565b94505060206132b187828801612f1a565b93505060406132c287828801612e65565b925050606085013567ffffffffffffffff8111156132e3576132e2612c70565b5b6132ef8782880161324a565b91505092959194509250565b6000806040838503121561331257613311612c6b565b5b600061332085828601612f1a565b925050602061333185828601612f1a565b9150509250929050565b7f4f776e61626c653a2063616c6c6572206973206e6f7420746865206f776e6572600082015250565b6000613371602083612d94565b915061337c8261333b565b602082019050919050565b600060208201905081810360008301526133a081613364565b9050919050565b7f4e487b7100000000000000000000000000000000000000000000000000000000600052602260045260246000fd5b600060028204905060018216806133ee57607f821691505b602082108103613401576134006133a7565b5b50919050565b7f4552433732313a20617070726f76656420717565727920666f72206e6f6e657860008201527f697374656e7420746f6b656e0000000000000000000000000000000000000000602082015250565b6000613463602c83612d94565b915061346e82613407565b604082019050919050565b6000602082019050818103600083015261349281613456565b9050919050565b7f4552433732313a20617070726f76616c20746f2063757272656e74206f776e6560008201527f7200000000000000000000000000000000000000000000000000000000000000602082015250565b60006134f5602183612d94565b915061350082613499565b604082019050919050565b60006020820190508181036000830152613524816134e8565b9050919050565b7f4552433732313a20617070726f76652063616c6c6572206973206e6f74206f7760008201527f6e6572206e6f7220617070726f76656420666f7220616c6c0000000000000000602082015250565b6000613587603883612d94565b91506135928261352b565b604082019050919050565b600060208201905081810360008301526135b68161357a565b9050919050565b7f4552433732313a207472616e736665722063616c6c6572206973206e6f74206f60008201527f776e6572206e6f7220617070726f766564000000000000000000000000000000602082015250565b6000613619603183612d94565b9150613624826135bd565b604082019050919050565b600060208201905081810360008301526136488161360c565b9050919050565b7f455243373231456e756d657261626c653a206f776e657220696e646578206f7560008201527f74206f6620626f756e6473000000000000000000000000000000000000000000602082015250565b60006136ab602b83612d94565b91506136b68261364f565b604082019050919050565b600060208201905081810360008301526136da8161369e565b9050919050565b7f596f75206d757374206f776e20616e204e46542066726f6d207468697320636f60008201527f6c6c656374696f6e000000000000000000000000000000000000000000000000602082015250565b600061373d602883612d94565b9150613748826136e1565b604082019050919050565b6000602082019050818103600083015261376c81613730565b9050919050565b7f455243373231456e756d657261626c653a20676c6f62616c20696e646578206f60008201527f7574206f6620626f756e64730000000000000000000000000000000000000000602082015250565b60006137cf602c83612d94565b91506137da82613773565b604082019050919050565b600060208201905081810360008301526137fe816137c2565b9050919050565b7f4e487b7100000000000000000000000000000000000000000000000000000000600052603260045260246000fd5b7f4552433732313a206f776e657220717565727920666f72206e6f6e657869737460008201527f656e7420746f6b656e0000000000000000000000000000000000000000000000602082015250565b6000613890602983612d94565b915061389b82613834565b604082019050919050565b600060208201905081810360008301526138bf81613883565b9050919050565b7f4552433732313a2062616c616e636520717565727920666f7220746865207a6560008201527f726f206164647265737300000000000000000000000000000000000000000000602082015250565b6000613922602a83612d94565b915061392d826138c6565b604082019050919050565b6000602082019050818103600083015261395181613915565b9050919050565b7f43616e206f6e6c79206d696e74206265747765656e203120616e64203520746f60008201527f6b656e73206174206f6e63650000000000000000000000000000000000000000602082015250565b60006139b4602c83612d94565b91506139bf82613958565b604082019050919050565b600060208201905081810360008301526139e3816139a7565b9050919050565b7f4e487b7100000000000000000000000000000000000000000000000000000000600052601160045260246000fd5b6000613a2482612e44565b9150613a2f83612e44565b9250827fffffffffffffffffffffffffffffffffffffffffffffffffffffffffffffffff03821115613a6457613a636139ea565b5b828201905092915050565b7f43616e2774206d696e74206d6f7265207468616e206d617820737570706c7900600082015250565b6000613aa5601f83612d94565b9150613ab082613a6f565b602082019050919050565b60006020820190508181036000830152613ad481613a98565b9050919050565b6000613ae682612e44565b91507fffffffffffffffffffffffffffffffffffffffffffffffffffffffffffffffff8203613b1857613b176139ea565b5b600182019050919050565b7f4552433732314d657461646174613a2055524920717565727920666f72206e6f60008201527f6e6578697374656e7420746f6b656e0000000000000000000000000000000000602082015250565b6000613b7f602f83612d94565b9150613b8a82613b23565b604082019050919050565b60006020820190508181036000830152613bae81613b72565b9050919050565b600081905092915050565b6000613bcb82612d89565b613bd58185613bb5565b9350613be5818560208601612da5565b80840191505092915050565b60008190508160005260206000209050919050565b60008154613c13816133d6565b613c1d8186613bb5565b94506001821660008114613c385760018114613c4957613c7c565b60ff19831686528186019350613c7c565b613c5285613bf1565b60005b83811015613c7457815481890152600182019150602081019050613c55565b838801955050505b50505092915050565b6000613c918286613bc0565b9150613c9d8285613bc0565b9150613ca98284613c06565b9150819050949350505050565b7f4f776e61626c653a206e6577206f776e657220697320746865207a65726f206160008201527f6464726573730000000000000000000000000000000000000000000000000000602082015250565b6000613d12602683612d94565b9150613d1d82613cb6565b604082019050919050565b60006020820190508181036000830152613d4181613d05565b9050919050565b7f4552433732313a206f70657261746f7220717565727920666f72206e6f6e657860008201527f697374656e7420746f6b656e0000000000000000000000000000000000000000602082015250565b6000613da4602c83612d94565b9150613daf82613d48565b604082019050919050565b60006020820190508181036000830152613dd381613d97565b9050919050565b7f4552433732313a207472616e736665722066726f6d20696e636f72726563742060008201527f6f776e6572000000000000000000000000000000000000000000000000000000602082015250565b6000613e36602583612d94565b9150613e4182613dda565b604082019050919050565b60006020820190508181036000830152613e6581613e29565b9050919050565b7f4552433732313a207472616e7366657220746f20746865207a65726f2061646460008201527f7265737300000000000000000000000000000000000000000000000000000000602082015250565b6000613ec8602483612d94565b9150613ed382613e6c565b604082019050919050565b60006020820190508181036000830152613ef781613ebb565b9050919050565b6000613f0982612e44565b9150613f1483612e44565b925082821015613f2757613f266139ea565b5b828203905092915050565b7f4552433732313a20617070726f766520746f2063616c6c657200000000000000600082015250565b6000613f68601983612d94565b9150613f7382613f32565b602082019050919050565b60006020820190508181036000830152613f9781613f5b565b9050919050565b7f4552433732313a207472616e7366657220746f206e6f6e20455243373231526560008201527f63656976657220696d706c656d656e7465720000000000000000000000000000602082015250565b6000613ffa603283612d94565b915061400582613f9e565b604082019050919050565b6000602082019050818103600083015261402981613fed565b9050919050565b7f4e487b7100000000000000000000000000000000000000000000000000000000600052601260045260246000fd5b600061406a82612e44565b915061407583612e44565b92508261408557614084614030565b5b828204905092915050565b600061409b82612e44565b91506140a683612e44565b9250826140b6576140b5614030565b5b828206905092915050565b600081519050919050565b600082825260208201905092915050565b60006140e8826140c1565b6140f281856140cc565b9350614102818560208601612da5565b61410b81612dd8565b840191505092915050565b600060808201905061412b6000830187612ed9565b6141386020830186612ed9565b6141456040830185612f6f565b818103606083015261415781846140dd565b905095945050505050565b60008151905061417181612ca1565b92915050565b60006020828403121561418d5761418c612c6b565b5b600061419b84828501614162565b91505092915050565b7f4e487b7100000000000000000000000000000000000000000000000000000000600052603160045260246000fd5b7f4552433732313a206d696e7420746f20746865207a65726f2061646472657373600082015250565b6000614209602083612d94565b9150614214826141d3565b602082019050919050565b60006020820190508181036000830152614238816141fc565b9050919050565b7f4552433732313a20746f6b656e20616c7265616479206d696e74656400000000600082015250565b6000614275601c83612d94565b91506142808261423f565b602082019050919050565b600060208201905081810360008301526142a481614268565b905091905056fea2646970667358221220da5805473abcb15e667c565b8068f166770e396f6d7f50fd396620797281497564736f6c634300080e0033",
  "immutableReferences": {},
  "source": "// SPDX-License-Identifier: MIT\r\n// OpenZeppelin Contracts (last updated v4.6.0) (token/ERC721/ERC721.sol)\r\n\r\npragma solidity ^0.8.0;\r\n\r\nimport \"@openzeppelin/contracts/token/ERC721/extensions/ERC721Enumerable.sol\";\r\nimport \"@openzeppelin/contracts/token/ERC20/IERC20.sol\";\r\nimport \"@openzeppelin/contracts/access/Ownable.sol\";\r\nimport \"@openzeppelin/contracts/utils/Address.sol\";\r\nimport \"@openzeppelin/contracts/utils/Context.sol\";\r\nimport \"@openzeppelin/contracts/utils/Strings.sol\";\r\nimport \"@openzeppelin/contracts/utils/introspection/ERC165.sol\";\r\n\r\n/**\r\n * @dev Implementation of https://eips.ethereum.org/EIPS/eip-721[ERC721] Non-Fungible Token Standard, including\r\n * the Metadata extension, but not including the Enumerable extension, which is available separately as\r\n * {ERC721Enumerable}.\r\n */\r\ncontract Airplane is ERC721Enumerable, Ownable {\r\n    using Strings for uint256;\r\n\r\n    bool public alien;\r\n    string baseURI;\r\n    string public baseExtension = \".json\";\r\n    uint256 public cost = 5 ether;\r\n    uint256 public MAX_SUPPLY = 102;\r\n    uint256 public constant MAX_MINT_PER_TX = 5;\r\n    bool public paused = false;\r\n    bool public revealed = false;\r\n    string public notRevealedUri;\r\n    \r\n    constructor(\r\n        string memory _name,\r\n        string memory _symbol,\r\n        string memory _initBaseURI,\r\n        string memory _initNotRevealedUri\r\n    ) ERC721(_name, _symbol) {\r\n        setBaseURI(_initBaseURI);\r\n        setNotRevealedURI(_initNotRevealedUri);\r\n        alien = true;\r\n    }\r\n\r\n    // internal\r\n    function _baseURI() internal view virtual override returns (string memory) {\r\n        return baseURI;\r\n    }\r\n\r\n    // public\r\n    function mint(uint256 _amount) public onlyOwner {\r\n        uint256 supply = totalSupply();\r\n        require(!paused);\r\n        require(\r\n            _amount > 0 && _amount <= MAX_MINT_PER_TX,\r\n            \"Can only mint between 1 and 5 tokens at once\"\r\n        );\r\n        require(\r\n            supply + _amount <= MAX_SUPPLY,\r\n            \"Can't mint more than max supply\"\r\n        );\r\n        for (uint256 i = 1; i <= _amount; i++) {\r\n            _safeMint(msg.sender, supply + i);\r\n        }\r\n    }\r\n\r\n    function tokenURI(uint256 tokenId)\r\n        public\r\n        view\r\n        virtual\r\n        override\r\n        returns (string memory)\r\n    {\r\n        require(\r\n            _exists(tokenId),\r\n            \"ERC721Metadata: URI query for nonexistent token\"\r\n        );\r\n\r\n        if (revealed == false) {\r\n            return notRevealedUri;\r\n        }\r\n\r\n        string memory currentBaseURI = _baseURI();\r\n        return\r\n            bytes(currentBaseURI).length > 0\r\n                ? string(\r\n                    abi.encodePacked(\r\n                        currentBaseURI,\r\n                        tokenId.toString(),\r\n                        baseExtension\r\n                    )\r\n                )\r\n                : \"\";\r\n    }\r\n\r\n    function _alien() public onlyOwner {\r\n        alien = !alien;\r\n    }\r\n\r\n    //only owner\r\n    function showboobs() public onlyOwner {\r\n        revealed = true;\r\n    }\r\n\r\n    function setCost(uint256 _newprice) public onlyOwner {\r\n        cost = _newprice;\r\n    }\r\n\r\n    function setNotRevealedURI(string memory _notRevealedURI) public onlyOwner {\r\n        notRevealedUri = _notRevealedURI;\r\n    }\r\n\r\n    function setBaseURI(string memory _newBaseURI) public onlyOwner {\r\n        baseURI = _newBaseURI;\r\n    }\r\n\r\n    function setBaseExtension(string memory _newBaseExtension)\r\n        public\r\n        onlyOwner\r\n    {\r\n        baseExtension = _newBaseExtension;\r\n    }\r\n\r\n    function pause(bool _state) public onlyOwner {\r\n        paused = _state;\r\n    }\r\n\r\n    function burn(uint256 tokenId) public virtual {\r\n        require(_isApprovedOrOwner(_msgSender(), tokenId), \"You must own an NFT from this collection\");\r\n        _burn(tokenId);\r\n    }\r\n}\r\n",
  "sourcePath": "F:\\crypto\\truffle-market\\contracts\\Airplane.sol",
  "compiler": {
    "name": "solc",
    "version": "0.8.14+commit.80d49f37.Emscripten.clang"
  },
  "schemaVersion": "3.4.7",
  "updatedAt": "2022-06-03T09:47:07.133Z",
  "networkType": "ethereum",
  "devdoc": {
    "details": "Implementation of https://eips.ethereum.org/EIPS/eip-721[ERC721] Non-Fungible Token Standard, including the Metadata extension, but not including the Enumerable extension, which is available separately as {ERC721Enumerable}.",
    "kind": "dev",
    "methods": {
      "approve(address,uint256)": {
        "details": "See {IERC721-approve}."
      },
      "balanceOf(address)": {
        "details": "See {IERC721-balanceOf}."
      },
      "getApproved(uint256)": {
        "details": "See {IERC721-getApproved}."
      },
      "isApprovedForAll(address,address)": {
        "details": "See {IERC721-isApprovedForAll}."
      },
      "name()": {
        "details": "See {IERC721Metadata-name}."
      },
      "owner()": {
        "details": "Returns the address of the current owner."
      },
      "ownerOf(uint256)": {
        "details": "See {IERC721-ownerOf}."
      },
      "renounceOwnership()": {
        "details": "Leaves the contract without owner. It will not be possible to call `onlyOwner` functions anymore. Can only be called by the current owner. NOTE: Renouncing ownership will leave the contract without an owner, thereby removing any functionality that is only available to the owner."
      },
      "safeTransferFrom(address,address,uint256)": {
        "details": "See {IERC721-safeTransferFrom}."
      },
      "safeTransferFrom(address,address,uint256,bytes)": {
        "details": "See {IERC721-safeTransferFrom}."
      },
      "setApprovalForAll(address,bool)": {
        "details": "See {IERC721-setApprovalForAll}."
      },
      "supportsInterface(bytes4)": {
        "details": "See {IERC165-supportsInterface}."
      },
      "symbol()": {
        "details": "See {IERC721Metadata-symbol}."
      },
      "tokenByIndex(uint256)": {
        "details": "See {IERC721Enumerable-tokenByIndex}."
      },
      "tokenOfOwnerByIndex(address,uint256)": {
        "details": "See {IERC721Enumerable-tokenOfOwnerByIndex}."
      },
      "tokenURI(uint256)": {
        "details": "See {IERC721Metadata-tokenURI}."
      },
      "totalSupply()": {
        "details": "See {IERC721Enumerable-totalSupply}."
      },
      "transferFrom(address,address,uint256)": {
        "details": "See {IERC721-transferFrom}."
      },
      "transferOwnership(address)": {
        "details": "Transfers ownership of the contract to a new account (`newOwner`). Can only be called by the current owner."
      }
    },
    "version": 1
  },
  "userdoc": {
    "kind": "user",
    "methods": {},
    "version": 1
  }
}