{
  "contractName": "Marketplace",
  "abi": [
    {
      "inputs": [
        {
          "internalType": "address",
          "name": "_paymentToken",
          "type": "address"
        }
      ],
      "stateMutability": "nonpayable",
      "type": "constructor"
    },
    {
      "anonymous": false,
      "inputs": [
        {
          "indexed": true,
          "internalType": "address",
          "name": "previousOwner",
          "type": "address"
        },
        {
          "indexed": true,
          "internalType": "address",
          "name": "newOwner",
          "type": "address"
        }
      ],
      "name": "OwnershipTransferred",
      "type": "event"
    },
    {
      "anonymous": false,
      "inputs": [
        {
          "indexed": true,
          "internalType": "address",
          "name": "nftContract",
          "type": "address"
        },
        {
          "indexed": true,
          "internalType": "uint256",
          "name": "tokenId",
          "type": "uint256"
        },
        {
          "indexed": true,
          "internalType": "address",
          "name": "buyer",
          "type": "address"
        },
        {
          "components": [
            {
              "internalType": "uint256",
              "name": "tokenId",
              "type": "uint256"
            },
            {
              "internalType": "address",
              "name": "seller",
              "type": "address"
            }
          ],
          "indexed": false,
          "internalType": "struct Marketplace.ListItem",
          "name": "listing",
          "type": "tuple"
        }
      ],
      "name": "TokenBought",
      "type": "event"
    },
    {
      "anonymous": false,
      "inputs": [
        {
          "indexed": true,
          "internalType": "address",
          "name": "nftContract",
          "type": "address"
        },
        {
          "indexed": true,
          "internalType": "uint256",
          "name": "tokenId",
          "type": "uint256"
        },
        {
          "components": [
            {
              "internalType": "uint256",
              "name": "tokenId",
              "type": "uint256"
            },
            {
              "internalType": "address",
              "name": "seller",
              "type": "address"
            }
          ],
          "indexed": false,
          "internalType": "struct Marketplace.ListItem",
          "name": "listItem",
          "type": "tuple"
        }
      ],
      "name": "TokenDelisted",
      "type": "event"
    },
    {
      "anonymous": false,
      "inputs": [
        {
          "indexed": true,
          "internalType": "address",
          "name": "nftnftContract",
          "type": "address"
        },
        {
          "indexed": true,
          "internalType": "uint256",
          "name": "tokenId",
          "type": "uint256"
        },
        {
          "indexed": true,
          "internalType": "string",
          "name": "contractType",
          "type": "string"
        },
        {
          "components": [
            {
              "internalType": "uint256",
              "name": "tokenId",
              "type": "uint256"
            },
            {
              "internalType": "address",
              "name": "seller",
              "type": "address"
            }
          ],
          "indexed": false,
          "internalType": "struct Marketplace.ListItem",
          "name": "listItem",
          "type": "tuple"
        }
      ],
      "name": "TokenListed",
      "type": "event"
    },
    {
      "inputs": [],
      "name": "owner",
      "outputs": [
        {
          "internalType": "address",
          "name": "",
          "type": "address"
        }
      ],
      "stateMutability": "view",
      "type": "function",
      "constant": true
    },
    {
      "inputs": [],
      "name": "renounceOwnership",
      "outputs": [],
      "stateMutability": "nonpayable",
      "type": "function"
    },
    {
      "inputs": [
        {
          "internalType": "address",
          "name": "newOwner",
          "type": "address"
        }
      ],
      "name": "transferOwnership",
      "outputs": [],
      "stateMutability": "nonpayable",
      "type": "function"
    },
    {
      "inputs": [],
      "name": "getListingPrice",
      "outputs": [
        {
          "internalType": "uint256",
          "name": "",
          "type": "uint256"
        }
      ],
      "stateMutability": "view",
      "type": "function",
      "constant": true
    },
    {
      "inputs": [
        {
          "internalType": "uint256",
          "name": "price",
          "type": "uint256"
        }
      ],
      "name": "setListingPrice",
      "outputs": [],
      "stateMutability": "nonpayable",
      "type": "function"
    },
    {
      "inputs": [],
      "name": "getServiceFee",
      "outputs": [
        {
          "internalType": "uint256",
          "name": "",
          "type": "uint256"
        }
      ],
      "stateMutability": "view",
      "type": "function",
      "constant": true
    },
    {
      "inputs": [
        {
          "internalType": "uint256",
          "name": "fee",
          "type": "uint256"
        }
      ],
      "name": "setServiceFee",
      "outputs": [],
      "stateMutability": "nonpayable",
      "type": "function"
    },
    {
      "inputs": [
        {
          "internalType": "bool",
          "name": "status",
          "type": "bool"
        }
      ],
      "name": "changeMarketplaceStatus",
      "outputs": [],
      "stateMutability": "nonpayable",
      "type": "function"
    },
    {
      "inputs": [
        {
          "internalType": "address",
          "name": "nftContract",
          "type": "address"
        },
        {
          "internalType": "uint256",
          "name": "tokenId",
          "type": "uint256"
        }
      ],
      "name": "listToken",
      "outputs": [],
      "stateMutability": "payable",
      "type": "function",
      "payable": true
    },
    {
      "inputs": [
        {
          "internalType": "address",
          "name": "nftContract",
          "type": "address"
        },
        {
          "internalType": "uint256",
          "name": "tokenId",
          "type": "uint256"
        }
      ],
      "name": "delistToken",
      "outputs": [],
      "stateMutability": "nonpayable",
      "type": "function"
    },
    {
      "inputs": [
        {
          "internalType": "address",
          "name": "nftContract",
          "type": "address"
        },
        {
          "internalType": "uint256",
          "name": "tokenId",
          "type": "uint256"
        }
      ],
      "name": "buyToken",
      "outputs": [],
      "stateMutability": "payable",
      "type": "function",
      "payable": true
    },
    {
      "inputs": [
        {
          "internalType": "address",
          "name": "nftContract",
          "type": "address"
        },
        {
          "internalType": "uint256",
          "name": "tokenId",
          "type": "uint256"
        }
      ],
      "name": "getTokenListing",
      "outputs": [
        {
          "components": [
            {
              "internalType": "uint256",
              "name": "tokenId",
              "type": "uint256"
            },
            {
              "internalType": "address",
              "name": "seller",
              "type": "address"
            }
          ],
          "internalType": "struct Marketplace.ListItem",
          "name": "validListing",
          "type": "tuple"
        }
      ],
      "stateMutability": "view",
      "type": "function",
      "constant": true
    },
    {
      "inputs": [
        {
          "internalType": "address",
          "name": "nftContract",
          "type": "address"
        }
      ],
      "name": "numOfTokenListings",
      "outputs": [
        {
          "internalType": "uint256",
          "name": "",
          "type": "uint256"
        }
      ],
      "stateMutability": "view",
      "type": "function",
      "constant": true
    },
    {
      "inputs": [
        {
          "internalType": "address",
          "name": "nftContract",
          "type": "address"
        },
        {
          "internalType": "uint256",
          "name": "from",
          "type": "uint256"
        },
        {
          "internalType": "uint256",
          "name": "size",
          "type": "uint256"
        }
      ],
      "name": "getTokenListings",
      "outputs": [
        {
          "components": [
            {
              "internalType": "uint256",
              "name": "tokenId",
              "type": "uint256"
            },
            {
              "internalType": "address",
              "name": "seller",
              "type": "address"
            }
          ],
          "internalType": "struct Marketplace.ListItem[]",
          "name": "listings",
          "type": "tuple[]"
        }
      ],
      "stateMutability": "view",
      "type": "function",
      "constant": true
    }
  ],
  "bytecode": "0x6080604052600060065560006007553480156200001b57600080fd5b506040516200305c3803806200305c833981810160405281019062000041919062000245565b6001600081905550620000696200005d6200010d60201b60201c565b6200011560201b60201c565b33600260006101000a81548173ffffffffffffffffffffffffffffffffffffffff021916908373ffffffffffffffffffffffffffffffffffffffff1602179055506001600260146101000a81548160ff02191690831515021790555080600560006101000a81548173ffffffffffffffffffffffffffffffffffffffff021916908373ffffffffffffffffffffffffffffffffffffffff1602179055505062000277565b600033905090565b6000600160009054906101000a900473ffffffffffffffffffffffffffffffffffffffff16905081600160006101000a81548173ffffffffffffffffffffffffffffffffffffffff021916908373ffffffffffffffffffffffffffffffffffffffff1602179055508173ffffffffffffffffffffffffffffffffffffffff168173ffffffffffffffffffffffffffffffffffffffff167f8be0079c531659141344cd1fd0a4f28419497f9722a3daafe3b4186f6b6457e060405160405180910390a35050565b600080fd5b600073ffffffffffffffffffffffffffffffffffffffff82169050919050565b60006200020d82620001e0565b9050919050565b6200021f8162000200565b81146200022b57600080fd5b50565b6000815190506200023f8162000214565b92915050565b6000602082840312156200025e576200025d620001db565b5b60006200026e848285016200022e565b91505092915050565b612dd580620002876000396000f3fe6080604052600436106100dd5760003560e01c80637c726b691161007f578063a17a8e5411610059578063a17a8e541461027e578063b6be53ba146102bb578063f2fde38b146102e4578063feb884061461030d576100dd565b80637c726b69146101ed5780638da5cb5b1461021657806396f9716414610241576100dd565b806345105cb1116100bb57806345105cb1146101545780635cdf76f81461019157806368f8fc10146101ba578063715018a6146101d6576100dd565b80630717d7c3146100e257806311a1933c146100fe57806312e8558514610129575b600080fd5b6100fc60048036038101906100f79190611e2d565b610336565b005b34801561010a57600080fd5b506101136106c2565b6040516101209190611e7c565b60405180910390f35b34801561013557600080fd5b5061013e6106cc565b60405161014b9190611e7c565b60405180910390f35b34801561016057600080fd5b5061017b60048036038101906101769190611e97565b6106d6565b6040516101889190611fe6565b60405180910390f35b34801561019d57600080fd5b506101b860048036038101906101b39190612008565b6108f5565b005b6101d460048036038101906101cf9190611e2d565b6109bf565b005b3480156101e257600080fd5b506101eb610d68565b005b3480156101f957600080fd5b50610214600480360381019061020f9190612008565b610df0565b005b34801561022257600080fd5b5061022b610ec1565b6040516102389190612044565b60405180910390f35b34801561024d57600080fd5b5061026860048036038101906102639190611e2d565b610eeb565b604051610275919061208e565b60405180910390f35b34801561028a57600080fd5b506102a560048036038101906102a091906120a9565b610fcf565b6040516102b29190611e7c565b60405180910390f35b3480156102c757600080fd5b506102e260048036038101906102dd919061210e565b611022565b005b3480156102f057600080fd5b5061030b600480360381019061030691906120a9565b611110565b005b34801561031957600080fd5b50610334600480360381019061032f9190611e2d565b611207565b005b60026000540361037b576040517f08c379a000000000000000000000000000000000000000000000000000000000815260040161037290612198565b60405180910390fd5b6002600081905550600260149054906101000a900460ff166103d2576040517f08c379a00000000000000000000000000000000000000000000000000000000081526004016103c990612204565b60405180910390fd5b61042681600860008573ffffffffffffffffffffffffffffffffffffffff1673ffffffffffffffffffffffffffffffffffffffff16815260200190815260200160002060000161139a90919063ffffffff16565b15610466576040517f08c379a000000000000000000000000000000000000000000000000000000000815260040161045d90612270565b60405180910390fd5b600060405180604001604052808381526020013373ffffffffffffffffffffffffffffffffffffffff16815250905061049f83826113b4565b6104de576040517f08c379a00000000000000000000000000000000000000000000000000000000081526004016104d5906122dc565b60405180910390fd5b80600860008573ffffffffffffffffffffffffffffffffffffffff1673ffffffffffffffffffffffffffffffffffffffff16815260200190815260200160002060020160008481526020019081526020016000206000820151816000015560208201518160010160006101000a81548173ffffffffffffffffffffffffffffffffffffffff021916908373ffffffffffffffffffffffffffffffffffffffff1602179055509050506105da82600860008673ffffffffffffffffffffffffffffffffffffffff1673ffffffffffffffffffffffffffffffffffffffff16815260200190815260200160002060000161140490919063ffffffff16565b506000600654111561065257600260009054906101000a900473ffffffffffffffffffffffffffffffffffffffff1673ffffffffffffffffffffffffffffffffffffffff166108fc6006549081150290604051600060405180830381858888f19350505050158015610650573d6000803e3d6000fd5b505b60405161065e90612353565b6040518091039020828473ffffffffffffffffffffffffffffffffffffffff167f343ec52dc8d92ba65c0842d64f582cbf48a00adbaae10646ec08de7407edbe58846040516106ad919061208e565b60405180910390a45060016000819055505050565b6000600754905090565b6000600654905090565b606060006106e385610fcf565b905080841080156106f45750600083115b156108ed57600083905081848661070b9190612397565b111561072057848261071d91906123ed565b90505b8067ffffffffffffffff81111561073a57610739612421565b5b60405190808252806020026020018201604052801561077357816020015b610760611d64565b8152602001906001900390816107585790505b50925060005b818110156108ea5760006107e287836107929190612397565b600860008b73ffffffffffffffffffffffffffffffffffffffff1673ffffffffffffffffffffffffffffffffffffffff16815260200190815260200160002060000161141e90919063ffffffff16565b90506000600860008a73ffffffffffffffffffffffffffffffffffffffff1673ffffffffffffffffffffffffffffffffffffffff1681526020019081526020016000206002016000838152602001908152602001600020604051806040016040529081600082015481526020016001820160009054906101000a900473ffffffffffffffffffffffffffffffffffffffff1673ffffffffffffffffffffffffffffffffffffffff1673ffffffffffffffffffffffffffffffffffffffff168152505090506108b089826113b4565b156108d557808684815181106108c9576108c8612450565b5b60200260200101819052505b505080806108e29061247f565b915050610779565b50505b509392505050565b6108fd611438565b73ffffffffffffffffffffffffffffffffffffffff1661091b610ec1565b73ffffffffffffffffffffffffffffffffffffffff1614610971576040517f08c379a000000000000000000000000000000000000000000000000000000000815260040161096890612513565b60405180910390fd5b60648111156109b5576040517f08c379a00000000000000000000000000000000000000000000000000000000081526004016109ac906125a5565b60405180910390fd5b8060078190555050565b600260005403610a04576040517f08c379a00000000000000000000000000000000000000000000000000000000081526004016109fb90612198565b60405180910390fd5b6002600081905550600260149054906101000a900460ff16610a5b576040517f08c379a0000000000000000000000000000000000000000000000000000000008152600401610a5290612204565b60405180910390fd5b6000600860008473ffffffffffffffffffffffffffffffffffffffff1673ffffffffffffffffffffffffffffffffffffffff1681526020019081526020016000206002016000838152602001908152602001600020604051806040016040529081600082015481526020016001820160009054906101000a900473ffffffffffffffffffffffffffffffffffffffff1673ffffffffffffffffffffffffffffffffffffffff1673ffffffffffffffffffffffffffffffffffffffff16815250509050610b2783826113b4565b610b66576040517f08c379a0000000000000000000000000000000000000000000000000000000008152600401610b5d90612611565b60405180910390fd5b610b71838333611440565b15610bb1576040517f08c379a0000000000000000000000000000000000000000000000000000000008152600401610ba8906126a3565b60405180910390fd5b60008373ffffffffffffffffffffffffffffffffffffffff166313faede66040518163ffffffff1660e01b8152600401602060405180830381865afa158015610bfe573d6000803e3d6000fd5b505050506040513d601f19601f82011682018060405250810190610c2291906126d8565b9050610c7733836020015183600560009054906101000a900473ffffffffffffffffffffffffffffffffffffffff1673ffffffffffffffffffffffffffffffffffffffff16611502909392919063ffffffff16565b8373ffffffffffffffffffffffffffffffffffffffff166342842e0e836020015133866040518463ffffffff1660e01b8152600401610cb893929190612705565b600060405180830381600087803b158015610cd257600080fd5b505af1158015610ce6573d6000803e3d6000fd5b505050503373ffffffffffffffffffffffffffffffffffffffff16838573ffffffffffffffffffffffffffffffffffffffff167fe5991b65a6b4bc1ac35512b9c1d82091aa5dffeaecace653aee87ccdc650a03085604051610d48919061208e565b60405180910390a4610d5a848461158b565b505060016000819055505050565b610d70611438565b73ffffffffffffffffffffffffffffffffffffffff16610d8e610ec1565b73ffffffffffffffffffffffffffffffffffffffff1614610de4576040517f08c379a0000000000000000000000000000000000000000000000000000000008152600401610ddb90612513565b60405180910390fd5b610dee60006116c3565b565b610df8611438565b73ffffffffffffffffffffffffffffffffffffffff16610e16610ec1565b73ffffffffffffffffffffffffffffffffffffffff1614610e6c576040517f08c379a0000000000000000000000000000000000000000000000000000000008152600401610e6390612513565b60405180910390fd5b671bc16d674ec80000811115610eb7576040517f08c379a0000000000000000000000000000000000000000000000000000000008152600401610eae906127ae565b60405180910390fd5b8060068190555050565b6000600160009054906101000a900473ffffffffffffffffffffffffffffffffffffffff16905090565b610ef3611d64565b6000600860008573ffffffffffffffffffffffffffffffffffffffff1673ffffffffffffffffffffffffffffffffffffffff1681526020019081526020016000206002016000848152602001908152602001600020604051806040016040529081600082015481526020016001820160009054906101000a900473ffffffffffffffffffffffffffffffffffffffff1673ffffffffffffffffffffffffffffffffffffffff1673ffffffffffffffffffffffffffffffffffffffff16815250509050610fbf84826113b4565b15610fc8578091505b5092915050565b600061101b600860008473ffffffffffffffffffffffffffffffffffffffff1673ffffffffffffffffffffffffffffffffffffffff168152602001908152602001600020600001611789565b9050919050565b61102a611438565b73ffffffffffffffffffffffffffffffffffffffff16611048610ec1565b73ffffffffffffffffffffffffffffffffffffffff161461109e576040517f08c379a000000000000000000000000000000000000000000000000000000000815260040161109590612513565b60405180910390fd5b600260149054906101000a900460ff161515811515036110f3576040517f08c379a00000000000000000000000000000000000000000000000000000000081526004016110ea9061281a565b60405180910390fd5b80600260146101000a81548160ff02191690831515021790555050565b611118611438565b73ffffffffffffffffffffffffffffffffffffffff16611136610ec1565b73ffffffffffffffffffffffffffffffffffffffff161461118c576040517f08c379a000000000000000000000000000000000000000000000000000000000815260040161118390612513565b60405180910390fd5b600073ffffffffffffffffffffffffffffffffffffffff168173ffffffffffffffffffffffffffffffffffffffff16036111fb576040517f08c379a00000000000000000000000000000000000000000000000000000000081526004016111f2906128ac565b60405180910390fd5b611204816116c3565b50565b3373ffffffffffffffffffffffffffffffffffffffff16600860008473ffffffffffffffffffffffffffffffffffffffff1673ffffffffffffffffffffffffffffffffffffffff168152602001908152602001600020600201600083815260200190815260200160002060010160009054906101000a900473ffffffffffffffffffffffffffffffffffffffff1673ffffffffffffffffffffffffffffffffffffffff16146112eb576040517f08c379a00000000000000000000000000000000000000000000000000000000081526004016112e29061293e565b60405180910390fd5b808273ffffffffffffffffffffffffffffffffffffffff167f57c1dd23eb30e76cadd004593a16597276163c304b0557a59cb648269a625f4f600860008673ffffffffffffffffffffffffffffffffffffffff1673ffffffffffffffffffffffffffffffffffffffff16815260200190815260200160002060020160008581526020019081526020016000206040516113849190612a10565b60405180910390a3611396828261158b565b5050565b60006113ac836000018360001b61179e565b905092915050565b60006113c98383600001518460200151611440565b80156113f457506113de8383600001516117c1565b806113f357506113f2838360200151611882565b5b5b156113fe57600190505b92915050565b6000611416836000018360001b61190d565b905092915050565b600061142d836000018361197d565b60001c905092915050565b600033905090565b6000808490508073ffffffffffffffffffffffffffffffffffffffff16636352211e856040518263ffffffff1660e01b815260040161147f9190611e7c565b602060405180830381865afa9250505080156114b957506040513d601f19601f820116820180604052508101906114b69190612a40565b60015b6114c75760009150506114fb565b8373ffffffffffffffffffffffffffffffffffffffff168173ffffffffffffffffffffffffffffffffffffffff1614925050505b9392505050565b611585846323b872dd60e01b85858560405160240161152393929190612705565b604051602081830303815290604052907bffffffffffffffffffffffffffffffffffffffffffffffffffffffff19166020820180517bffffffffffffffffffffffffffffffffffffffffffffffffffffffff83818316178352505050506119a8565b50505050565b6115df81600860008573ffffffffffffffffffffffffffffffffffffffff1673ffffffffffffffffffffffffffffffffffffffff16815260200190815260200160002060000161139a90919063ffffffff16565b156116bf57600860008373ffffffffffffffffffffffffffffffffffffffff1673ffffffffffffffffffffffffffffffffffffffff16815260200190815260200160002060020160008281526020019081526020016000206000808201600090556001820160006101000a81549073ffffffffffffffffffffffffffffffffffffffff021916905550506116bd81600860008573ffffffffffffffffffffffffffffffffffffffff1673ffffffffffffffffffffffffffffffffffffffff168152602001908152602001600020600001611a6f90919063ffffffff16565b505b5050565b6000600160009054906101000a900473ffffffffffffffffffffffffffffffffffffffff16905081600160006101000a81548173ffffffffffffffffffffffffffffffffffffffff021916908373ffffffffffffffffffffffffffffffffffffffff1602179055508173ffffffffffffffffffffffffffffffffffffffff168173ffffffffffffffffffffffffffffffffffffffff167f8be0079c531659141344cd1fd0a4f28419497f9722a3daafe3b4186f6b6457e060405160405180910390a35050565b600061179782600001611a89565b9050919050565b600080836001016000848152602001908152602001600020541415905092915050565b6000808390508073ffffffffffffffffffffffffffffffffffffffff1663081812fc846040518263ffffffff1660e01b81526004016118009190611e7c565b602060405180830381865afa92505050801561183a57506040513d601f19601f820116820180604052508101906118379190612a40565b60015b61184857600091505061187c565b3073ffffffffffffffffffffffffffffffffffffffff168173ffffffffffffffffffffffffffffffffffffffff1614925050505b92915050565b6000808390508073ffffffffffffffffffffffffffffffffffffffff1663e985e9c584306040518363ffffffff1660e01b81526004016118c3929190612a6d565b602060405180830381865afa1580156118e0573d6000803e3d6000fd5b505050506040513d601f19601f820116820180604052508101906119049190612aab565b91505092915050565b6000611919838361179e565b611972578260000182908060018154018082558091505060019003906000526020600020016000909190919091505582600001805490508360010160008481526020019081526020016000208190555060019050611977565b600090505b92915050565b600082600001828154811061199557611994612450565b5b9060005260206000200154905092915050565b6000611a0a826040518060400160405280602081526020017f5361666545524332303a206c6f772d6c6576656c2063616c6c206661696c65648152508573ffffffffffffffffffffffffffffffffffffffff16611a9a9092919063ffffffff16565b9050600081511115611a6a5780806020019051810190611a2a9190612aab565b611a69576040517f08c379a0000000000000000000000000000000000000000000000000000000008152600401611a6090612b4a565b60405180910390fd5b5b505050565b6000611a81836000018360001b611ab2565b905092915050565b600081600001805490509050919050565b6060611aa98484600085611bc6565b90509392505050565b60008083600101600084815260200190815260200160002054905060008114611bba576000600182611ae491906123ed565b9050600060018660000180549050611afc91906123ed565b9050818114611b6b576000866000018281548110611b1d57611b1c612450565b5b9060005260206000200154905080876000018481548110611b4157611b40612450565b5b90600052602060002001819055508387600101600083815260200190815260200160002081905550505b85600001805480611b7f57611b7e612b6a565b5b600190038181906000526020600020016000905590558560010160008681526020019081526020016000206000905560019350505050611bc0565b60009150505b92915050565b606082471015611c0b576040517f08c379a0000000000000000000000000000000000000000000000000000000008152600401611c0290612c0b565b60405180910390fd5b611c1485611cda565b611c53576040517f08c379a0000000000000000000000000000000000000000000000000000000008152600401611c4a90612c77565b60405180910390fd5b6000808673ffffffffffffffffffffffffffffffffffffffff168587604051611c7c9190612d11565b60006040518083038185875af1925050503d8060008114611cb9576040519150601f19603f3d011682016040523d82523d6000602084013e611cbe565b606091505b5091509150611cce828286611cfd565b92505050949350505050565b6000808273ffffffffffffffffffffffffffffffffffffffff163b119050919050565b60608315611d0d57829050611d5d565b600083511115611d205782518084602001fd5b816040517f08c379a0000000000000000000000000000000000000000000000000000000008152600401611d549190612d7d565b60405180910390fd5b9392505050565b604051806040016040528060008152602001600073ffffffffffffffffffffffffffffffffffffffff1681525090565b600080fd5b600073ffffffffffffffffffffffffffffffffffffffff82169050919050565b6000611dc482611d99565b9050919050565b611dd481611db9565b8114611ddf57600080fd5b50565b600081359050611df181611dcb565b92915050565b6000819050919050565b611e0a81611df7565b8114611e1557600080fd5b50565b600081359050611e2781611e01565b92915050565b60008060408385031215611e4457611e43611d94565b5b6000611e5285828601611de2565b9250506020611e6385828601611e18565b9150509250929050565b611e7681611df7565b82525050565b6000602082019050611e916000830184611e6d565b92915050565b600080600060608486031215611eb057611eaf611d94565b5b6000611ebe86828701611de2565b9350506020611ecf86828701611e18565b9250506040611ee086828701611e18565b9150509250925092565b600081519050919050565b600082825260208201905092915050565b6000819050602082019050919050565b611f1f81611df7565b82525050565b611f2e81611db9565b82525050565b604082016000820151611f4a6000850182611f16565b506020820151611f5d6020850182611f25565b50505050565b6000611f6f8383611f34565b60408301905092915050565b6000602082019050919050565b6000611f9382611eea565b611f9d8185611ef5565b9350611fa883611f06565b8060005b83811015611fd9578151611fc08882611f63565b9750611fcb83611f7b565b925050600181019050611fac565b5085935050505092915050565b600060208201905081810360008301526120008184611f88565b905092915050565b60006020828403121561201e5761201d611d94565b5b600061202c84828501611e18565b91505092915050565b61203e81611db9565b82525050565b60006020820190506120596000830184612035565b92915050565b6040820160008201516120756000850182611f16565b5060208201516120886020850182611f25565b50505050565b60006040820190506120a3600083018461205f565b92915050565b6000602082840312156120bf576120be611d94565b5b60006120cd84828501611de2565b91505092915050565b60008115159050919050565b6120eb816120d6565b81146120f657600080fd5b50565b600081359050612108816120e2565b92915050565b60006020828403121561212457612123611d94565b5b6000612132848285016120f9565b91505092915050565b600082825260208201905092915050565b7f5265656e7472616e637947756172643a207265656e7472616e742063616c6c00600082015250565b6000612182601f8361213b565b915061218d8261214c565b602082019050919050565b600060208201905081810360008301526121b181612175565b9050919050565b7f4c697374696e6720616e642062696420617265206e6f7420656e61626c656400600082015250565b60006121ee601f8361213b565b91506121f9826121b8565b602082019050919050565b6000602082019050818103600083015261221d816121e1565b9050919050565b7f416c7265616479206c6973746564000000000000000000000000000000000000600082015250565b600061225a600e8361213b565b915061226582612224565b602082019050919050565b600060208201905081810360008301526122898161224d565b9050919050565b7f4c697374696e67206973206e6f742076616c6964000000000000000000000000600082015250565b60006122c660148361213b565b91506122d182612290565b602082019050919050565b600060208201905081810360008301526122f5816122b9565b9050919050565b600081905092915050565b7f6572633732310000000000000000000000000000000000000000000000000000600082015250565b600061233d6006836122fc565b915061234882612307565b600682019050919050565b600061235e82612330565b9150819050919050565b7f4e487b7100000000000000000000000000000000000000000000000000000000600052601160045260246000fd5b60006123a282611df7565b91506123ad83611df7565b9250827fffffffffffffffffffffffffffffffffffffffffffffffffffffffffffffffff038211156123e2576123e1612368565b5b828201905092915050565b60006123f882611df7565b915061240383611df7565b92508282101561241657612415612368565b5b828203905092915050565b7f4e487b7100000000000000000000000000000000000000000000000000000000600052604160045260246000fd5b7f4e487b7100000000000000000000000000000000000000000000000000000000600052603260045260246000fd5b600061248a82611df7565b91507fffffffffffffffffffffffffffffffffffffffffffffffffffffffffffffffff82036124bc576124bb612368565b5b600182019050919050565b7f4f776e61626c653a2063616c6c6572206973206e6f7420746865206f776e6572600082015250565b60006124fd60208361213b565b9150612508826124c7565b602082019050919050565b6000602082019050818103600083015261252c816124f0565b9050919050565b7f417474656d707420746f207365742070657263656e746167652068696768657260008201527f207468616e203130202500000000000000000000000000000000000000000000602082015250565b600061258f602a8361213b565b915061259a82612533565b604082019050919050565b600060208201905081810360008301526125be81612582565b9050919050565b7f4e6f7420666f722073616c650000000000000000000000000000000000000000600082015250565b60006125fb600c8361213b565b9150612606826125c5565b602082019050919050565b6000602082019050818103600083015261262a816125ee565b9050919050565b7f546f6b656e206f776e65722063616e277420627579207468656972206f776e2060008201527f746f6b656e000000000000000000000000000000000000000000000000000000602082015250565b600061268d60258361213b565b915061269882612631565b604082019050919050565b600060208201905081810360008301526126bc81612680565b9050919050565b6000815190506126d281611e01565b92915050565b6000602082840312156126ee576126ed611d94565b5b60006126fc848285016126c3565b91505092915050565b600060608201905061271a6000830186612035565b6127276020830185612035565b6127346040830184611e6d565b949350505050565b7f417474656d707420746f207365742070657263656e746167652068696768657260008201527f207468616e20322046544d000000000000000000000000000000000000000000602082015250565b6000612798602b8361213b565b91506127a38261273c565b604082019050919050565b600060208201905081810360008301526127c78161278b565b9050919050565b7f416c7265616479207365742e0000000000000000000000000000000000000000600082015250565b6000612804600c8361213b565b915061280f826127ce565b602082019050919050565b60006020820190508181036000830152612833816127f7565b9050919050565b7f4f776e61626c653a206e6577206f776e657220697320746865207a65726f206160008201527f6464726573730000000000000000000000000000000000000000000000000000602082015250565b600061289660268361213b565b91506128a18261283a565b604082019050919050565b600060208201905081810360008301526128c581612889565b9050919050565b7f4f6e6c7920746f6b656e2073656c6c65722063616e2064656c69737420746f6b60008201527f656e000000000000000000000000000000000000000000000000000000000000602082015250565b600061292860228361213b565b9150612933826128cc565b604082019050919050565b600060208201905081810360008301526129578161291b565b9050919050565b60008160001c9050919050565b6000819050919050565b60006129886129838361295e565b61296b565b9050919050565b600073ffffffffffffffffffffffffffffffffffffffff82169050919050565b60006129c26129bd8361295e565b61298f565b9050919050565b6040820160008083015490506129de81612975565b6129eb6000860182611f16565b50600183015490506129fc816129af565b612a096020860182611f25565b5050505050565b6000604082019050612a2560008301846129c9565b92915050565b600081519050612a3a81611dcb565b92915050565b600060208284031215612a5657612a55611d94565b5b6000612a6484828501612a2b565b91505092915050565b6000604082019050612a826000830185612035565b612a8f6020830184612035565b9392505050565b600081519050612aa5816120e2565b92915050565b600060208284031215612ac157612ac0611d94565b5b6000612acf84828501612a96565b91505092915050565b7f5361666545524332303a204552433230206f7065726174696f6e20646964206e60008201527f6f74207375636365656400000000000000000000000000000000000000000000602082015250565b6000612b34602a8361213b565b9150612b3f82612ad8565b604082019050919050565b60006020820190508181036000830152612b6381612b27565b9050919050565b7f4e487b7100000000000000000000000000000000000000000000000000000000600052603160045260246000fd5b7f416464726573733a20696e73756666696369656e742062616c616e636520666f60008201527f722063616c6c0000000000000000000000000000000000000000000000000000602082015250565b6000612bf560268361213b565b9150612c0082612b99565b604082019050919050565b60006020820190508181036000830152612c2481612be8565b9050919050565b7f416464726573733a2063616c6c20746f206e6f6e2d636f6e7472616374000000600082015250565b6000612c61601d8361213b565b9150612c6c82612c2b565b602082019050919050565b60006020820190508181036000830152612c9081612c54565b9050919050565b600081519050919050565b600081905092915050565b60005b83811015612ccb578082015181840152602081019050612cb0565b83811115612cda576000848401525b50505050565b6000612ceb82612c97565b612cf58185612ca2565b9350612d05818560208601612cad565b80840191505092915050565b6000612d1d8284612ce0565b915081905092915050565b600081519050919050565b6000601f19601f8301169050919050565b6000612d4f82612d28565b612d59818561213b565b9350612d69818560208601612cad565b612d7281612d33565b840191505092915050565b60006020820190508181036000830152612d978184612d44565b90509291505056fea26469706673582212203270671cfa70fe51bc5e704d67f489429c485136e06a463f557fa6ffd844687c64736f6c634300080e0033",
  "immutableReferences": {},
  "source": "// SPDX-License-Identifier: MIT\npragma solidity ^0.8.0;\n\nimport \"@openzeppelin/contracts/access/Ownable.sol\";\nimport \"@openzeppelin/contracts/utils/Address.sol\";\nimport \"@openzeppelin/contracts/utils/Context.sol\";\nimport \"@openzeppelin/contracts/utils/Strings.sol\";\nimport \"@openzeppelin/contracts/security/ReentrancyGuard.sol\";\nimport \"@openzeppelin/contracts/token/ERC20/IERC20.sol\";\nimport \"@openzeppelin/contracts/token/ERC721/IERC721.sol\";\nimport \"@openzeppelin/contracts/utils/structs/EnumerableSet.sol\";\nimport \"@openzeppelin/contracts/token/ERC20/utils/SafeERC20.sol\";\nimport \"@openzeppelin/contracts/utils/math/SafeMath.sol\";\nimport \"./Airplane.sol\";\n\ninterface IWETH {\n    function deposit() external payable;\n    function transfer(address to, uint value) external returns (bool);\n    function withdraw(uint) external;\n}\n\ncontract Marketplace is ReentrancyGuard, Ownable {\n    using SafeMath for uint256;\n    using Address for address;\n    using EnumerableSet for EnumerableSet.UintSet;\n    using EnumerableSet for EnumerableSet.AddressSet;\n    using SafeERC20 for IERC20;\n    address adminAddress;\n    bool marketplaceStatus;\n    EnumerableSet.AddressSet tokenWhiteList;\n\n    IERC20 paymentToken;\n\n    uint256 listingFee = 0 ether; // minimum price, change for what you want\n    uint256 _serviceFee = 0;  // 0 % with 1000 factor\n\n    struct ListItem {\n        uint256 tokenId;\n        address seller;\n    }\n\n    struct ListItemInput {\n        address nftContract;\n        uint256 tokenId;\n    }\n\n    struct TransferItem {\n        address nftContract;\n        uint8 contractType;\n        uint256 tokenId;\n        uint256 amount;\n        address toAccount;\n    }\n\n    struct CollectionMarket {\n      EnumerableSet.UintSet tokenIdsListing;\n      mapping(uint256 => ListItem) listings;\n    }\n\n    mapping(address => CollectionMarket) private _marketplaceSales;\n\n    // declare a event for when a item is created on marketplace\n    event TokenListed(\n        address indexed nftnftContract,\n        uint256 indexed tokenId,\n        string indexed contractType,\n        ListItem listItem\n    );\n    event TokenDelisted(\n        address indexed nftContract,\n        uint256 indexed tokenId,\n        ListItem listItem\n    );\n    event TokenBought(\n        address indexed nftContract,\n        uint256 indexed tokenId,\n        address indexed buyer,\n        ListItem listing\n    );\n\n    constructor(address _paymentToken) {\n        adminAddress = msg.sender;\n        marketplaceStatus = true;\n        paymentToken = IERC20(_paymentToken);\n    }\n\n    modifier onlyMarketplaceOpen() {\n        require(marketplaceStatus, \"Listing and bid are not enabled\");\n        _;\n    }\n\n    function _isTokenApproved(address nftContract, uint256 tokenId)\n        private\n        view\n        returns (bool)\n    {\n        IERC721 _erc721 = IERC721(nftContract);\n        try _erc721.getApproved(tokenId) returns (address tokenOperator) {\n            return tokenOperator == address(this);\n        } catch {\n            return false;\n        }\n    }\n\n    function _isAllTokenApproved(address nftContract, address owner)\n        private\n        view\n        returns (bool)\n    {\n        IERC721 _erc721 = IERC721(nftContract);\n        return _erc721.isApprovedForAll(owner, address(this));\n    }\n\n    function _isTokenOwner(\n        address nftContract,\n        uint256 tokenId,\n        address account\n    ) private view returns (bool) {\n        IERC721 _erc721 = IERC721(nftContract);\n        try _erc721.ownerOf(tokenId) returns (address tokenOwner) {\n            return tokenOwner == account;\n        } catch {\n            return false;\n        }\n    }\n\n    function _isListItemValid(address nftContract, ListItem memory listItem)\n        private\n        view\n        returns (bool isValid)\n    {\n        if (\n            _isTokenOwner(nftContract, listItem.tokenId, listItem.seller) &&\n            (_isTokenApproved(nftContract, listItem.tokenId) ||\n                _isAllTokenApproved(nftContract, listItem.seller))\n        ) {\n            isValid = true;\n        }\n    }\n\n\n    // returns the listing price of the contract\n    function getListingPrice() public view returns (uint256) {\n        return listingFee;\n    }\n\n    function setListingPrice(uint256 price) external onlyOwner {\n        require(\n            price <= 2 ether,\n            \"Attempt to set percentage higher than 2 FTM\"\n        );\n        listingFee = price;\n    }\n\n    function getServiceFee() public view returns (uint256) {\n        return _serviceFee;\n    }\n\n    function setServiceFee(uint256 fee) external onlyOwner {\n        require(\n            fee <= 100,\n            \"Attempt to set percentage higher than 10 %\"\n        );\n        _serviceFee = fee;\n    }\n\n    function changeMarketplaceStatus (bool status) external onlyOwner {\n        require(status != marketplaceStatus, \"Already set.\");\n        marketplaceStatus = status;\n    }\n\n    function _delistToken(address nftContract, uint256 tokenId) private {\n        if (_marketplaceSales[nftContract].tokenIdsListing.contains(tokenId)) {\n            delete _marketplaceSales[nftContract].listings[tokenId];\n            _marketplaceSales[nftContract].tokenIdsListing.remove(tokenId);\n        }\n    }\n    // places an item for sale on the marketplace\n\n    function listToken(\n        address nftContract,\n        uint256 tokenId\n    ) public payable nonReentrant onlyMarketplaceOpen {\n\n        require(!_marketplaceSales[nftContract].tokenIdsListing.contains(tokenId), \"Already listed\");\n\n        ListItem memory listItem = ListItem(\n            tokenId,\n            msg.sender\n        );\n\n        require(\n            _isListItemValid(nftContract, listItem),\n            \"Listing is not valid\"\n        );\n\n        _marketplaceSales[nftContract].listings[tokenId] = listItem;\n        _marketplaceSales[nftContract].tokenIdsListing.add(tokenId);\n\n        if (listingFee > 0) {\n            payable(adminAddress).transfer(listingFee);\n        }\n        emit TokenListed(nftContract, tokenId, \"erc721\", listItem);\n    }\n\n    function delistToken(address nftContract, uint256 tokenId)\n        external\n    {\n        require(\n            _marketplaceSales[nftContract].listings[tokenId].seller == msg.sender,\n            \"Only token seller can delist token\"\n        );\n\n        emit TokenDelisted(\n            nftContract,\n            tokenId,\n            _marketplaceSales[nftContract].listings[tokenId]\n        );\n\n        _delistToken(nftContract, tokenId);\n    }\n\n    function buyToken(\n        address nftContract,\n        uint256 tokenId\n    ) external payable nonReentrant onlyMarketplaceOpen {\n\n        ListItem memory listItem = _marketplaceSales[nftContract].listings[tokenId];\n\n        require(\n            _isListItemValid(nftContract, listItem),\n            \"Not for sale\"\n        );\n        require(\n            !_isTokenOwner(nftContract, tokenId, msg.sender),\n            \"Token owner can't buy their own token\"\n        );\n\n        uint256 totalPrice = Airplane(nftContract).cost();\n   \n        paymentToken.safeTransferFrom(msg.sender, listItem.seller, totalPrice);\n\n        IERC721(nftContract).safeTransferFrom(listItem.seller, msg.sender, tokenId);\n\n        emit TokenBought(\n            nftContract,\n            tokenId,\n            msg.sender,\n            listItem\n        );\n\n        _delistToken(nftContract, tokenId);\n    }\n\n    function getTokenListing(address nftContract, uint256 tokenId)\n        public\n        view\n        returns (ListItem memory validListing)\n    {\n        ListItem memory listing = _marketplaceSales[nftContract].listings[tokenId];\n        if (_isListItemValid(nftContract, listing)) {\n            validListing = listing;\n        }\n    }\n\n    function numOfTokenListings(address nftContract)\n        public\n        view\n        returns (uint256)\n    {\n        return _marketplaceSales[nftContract].tokenIdsListing.length();\n    }\n\n    function getTokenListings(\n        address nftContract,\n        uint256 from,\n        uint256 size\n    ) public view returns (ListItem[] memory listings) {\n        uint256 listingsCount = numOfTokenListings(nftContract);\n\n        if (from < listingsCount && size > 0) {\n            uint256 querySize = size;\n            if ((from + size) > listingsCount) {\n                querySize = listingsCount - from;\n            }\n            listings = new ListItem[](querySize);\n            for (uint256 i = 0; i < querySize; i++) {\n                uint256 tokenId = _marketplaceSales[nftContract]\n                    .tokenIdsListing\n                    .at(i + from);\n                ListItem memory listing = _marketplaceSales[nftContract].listings[\n                    tokenId\n                ];\n                if (_isListItemValid(nftContract, listing)) {\n                    listings[i] = listing;\n                }\n            }\n        }\n    }\n}\n",
  "sourcePath": "F:\\crypto\\truffle-market\\contracts\\marketplace.sol",
  "compiler": {
    "name": "solc",
    "version": "0.8.14+commit.80d49f37.Emscripten.clang"
  },
  "schemaVersion": "3.4.7",
  "updatedAt": "2022-06-03T09:47:07.201Z",
  "networkType": "ethereum",
  "devdoc": {
    "kind": "dev",
    "methods": {
      "owner()": {
        "details": "Returns the address of the current owner."
      },
      "renounceOwnership()": {
        "details": "Leaves the contract without owner. It will not be possible to call `onlyOwner` functions anymore. Can only be called by the current owner. NOTE: Renouncing ownership will leave the contract without an owner, thereby removing any functionality that is only available to the owner."
      },
      "transferOwnership(address)": {
        "details": "Transfers ownership of the contract to a new account (`newOwner`). Can only be called by the current owner."
      }
    },
    "version": 1
  },
  "userdoc": {
    "kind": "user",
    "methods": {},
    "version": 1
  }
}